:102000000080002099600000816000008160000075
:1020100000000000000000000000000000000000C0
:1020200000000000000000000000000081600000CF
:10203000000000000000000081600000ED60000072
:102040008160000081600000BD3800008D2D00001F
:1020500081600000816000008160000085600000F8
:10206000816000002D46000081600000816000005A
:102070005D2D0000816000003D4600008160000091
:1020800081600000816000000D46000017460000DE
:102090002146000081600000816000008160000036
:1020A00081600000816000008160000081600000AC
:1020B0000000000010B5064C2378002B07D1054B1B
:1020C000002B02D0044800E000BF0123237010BDA4
:1020D000800100200000000068B1000008B5084B36
:1020E000002B03D00748084900E000BF07480368F9
:1020F000002B03D0064B002B00D0984708BDC046EC
:102100000000000068B1000084010020740100207C
:10211000000000007047000038B5051C00242B5D4E
:102120000F2B03D80648074903F064FB295D0648D6
:102130001022013403F0E1FB082CF0D138BDC04679
:10214000140A0020E5A500003809002070B50C48ED
:1021500000F018FE0B4E0B21301C01F0DDF80A4C8C
:102160001221201C01F0D8F8084D311C281C01F068
:1021700093F9281C211C1C3001F08EF970BDC0465B
:10218000890200209C020020B002002050020020A2
:10219000F0B5002487B0201C0221013404F0F8F9C6
:1021A0000B2CF8D12020022104F0F2F92120022189
:1021B00004F0EEF92324201C0221013404F0E8F994
:1021C0002A2CF8D11920022104F0E2F91A20022168
:1021D00004F0DEF90820012104F0DAF908200021DA
:1021E00004F030FA0920002104F0D2F9092001217D
:1021F00004F0CEF90920012104F024FA0F20012176
:1022000004F0C6F90F20002104F01CFA002113206D
:1022100004F0BEF90C2004F0F5F80C20002104F0C5
:1022200011FA0C20012104F0B3F9962170488901BC
:1022300002F0EAFA6F4C9621201C890103F048FE57
:102240000121082004F0FEF96B4803F063FF082029
:10225000002104F0F7F96949201C03F0DDFA684D0C
:102260002E1C281C1C3601F0F4F9301C01F0F1F989
:102270006449201C03F0BEFA281C01F015F90A225B
:10228000011C201C03F039FB5F4D201C291C03F0AE
:10229000C3FA5E49201C03F0ADFA301C01F004F9CA
:1022A0000A22011C201C03F028FB291C201C03F01F
:1022B000B3FA00254F4C5649201C03F09BFA291C09
:1022C0004431201CC9B203F0B1FA3C236B43514A9C
:1022D0000027D21828236B4300924F4A009CD21843
:1022E0001C236B430392464AD2180192039BF900C8
:1022F00059180822201C07F016F83E4E00232381AF
:10230000A37246490137301C03F074FA0A22391CC3
:10231000301C03F0DAFA4249301C03F06BFA201C3F
:10232000FFF7FAFE3F49301C03F064FA211C082233
:1023300004A806F0F8FF7A1ED2B2019804A901F0B1
:10234000C1F80290002814D03749301C03F064FA19
:102350000198211C0C22002301F0B7F9002802D0BB
:10236000301C324901E03249301C03F055FA012398
:1023700004E0301C2F4903F04FFA029BA3720C3487
:10238000052FB3D100242C49301C03F033FA009BF5
:102390001819FFF7C1FE294F301C391C0C3403F00B
:1023A0003BFA3C2CEFD1301C391C013503F034FAD8
:1023B000022D00D07EE72249301C03F02DFA0C4894
:1023C00002F023FA1F4802F0FDFC1F4C0021201CE4
:1023D00000F08AFE0022201C131C0A2100F07CFD64
:1023E000201C14212A1C112300F0C2FD07B0F0BDEF
:1023F000140A00203809002010270000F49D000076
:1024000050020020FA9D0000039E00000D9E000077
:10241000169E00009C010020080000201B9E00006A
:102420003C9F000036B00000229E0000259E000068
:102430002A9E0000309E0000349E0000EAA50000A5
:102440003B9E0000DF0E00208902002000000000FB
:10245000F0B5DD4E91B03078032800D96BE304F07D
:1024600015FA04006400A400FB01D84C201C01F004
:1024700019FAFA210022201C890101F05BFAD44CE0
:10248000D44D201C297801F053FBD34F0021387024
:10249000092004F0D7F8FA20400003F03BFE0920A1
:1024A000012104F0CFF82978201C01F09FFBCB4DCF
:1024B0003870CB49281C03F09DF9387801F0ECFA0C
:1024C0000021201C01F0EAFB387001F0E5FA281C1D
:1024D000C44903F08FF9C44B0A22E15C281C03F0C5
:1024E00010FA0021201C01F0CFFD387001F0D4FA61
:1024F000281CBE4903F07EF9BD4B0A22E15C281C72
:1025000003F0FFF9BB49201C01F05CFD387001F0BD
:10251000C3FA281CB84903F06DF9CF235B00E15CD6
:10252000281C0A2203F0D5F93DE0A84C201C01F03C
:10253000B9F9FA2189010022201C01F0FBF9A44815
:1025400001F0FEFBA44D287001F0A6FAA34F2B78F2
:10255000381C002B05D1A94903F05EF90223337022
:10256000E9E2A74903F058F9A64D2B685A1C2A60E6
:10257000092B12D9A449381C03F04EF90027201C5E
:102580002F6001F085F9FA21201C89003A1C01F026
:10259000D1F9FA20C00003F0BDFD201C01F078F94C
:1025A0009A4803F0B7FD0123D9E7994C201C01F0AC
:1025B00019F9201C1C3001F015F9FA20400003F035
:1025C000A9FD944D012100240F202C7004F03AF84D
:1025D000FA20400003F09EFD132003F067FF211C4A
:1025E000061C0F2004F02EF8301C04F057FF8A4917
:1025F00004F09AFC8949041C04F0C0FD06F052FD69
:102600006C4B6B4A05F0C2FA6B4A6C4B05F028FF25
:102610006B4A6C4B04F09EFF06F096FD0021061CF1
:1026200004F048FA00280BD17D49301C04F056FA1A
:10263000FE21002805D1301C04F05AFAC1B200E096
:102640000121634801F0ECFA634B187001F024FAA1
:10265000201C744904F084FA734904F065FC0021DD
:10266000041C04F027FA00280BD1201C6E4904F04A
:1026700035FAFF22002805D1201C04F039FAC2B235
:1026800000E000220AAB1A7068490BA806F00AFFA6
:10269000281C0BA906F028FF00261C223C237243AD
:1026A00073435B49624D891808350691ED1801277F
:1026B000AB78002B3CD0494C5E49201C03F09AF8C3
:1026C000291C0839081C0591FFF726FD201C5A49D2
:1026D00003F090F8311C4431C9B2201C03F08EF88D
:1026E000201C564903F086F80A22201C391C03F0EE
:1026F000ECF8201C524903F07DF80599069801F08A
:102700009FF8288001F0B2F806F0CCFC0B1C0221E7
:10271000021C0091201C0AAC03F0C2F9291C022201
:10272000201C06F000FE227863780BA8454905E0DE
:102730000AAA4449137053700BA81A1C06F0B2FE83
:10274000013734480BA906F0CFFE0C35062FAFD168
:102750000136022EA1D1214C3B49201C03F05CF82C
:1027600000261A4D281C01F093F8002E02D037489D
:1027700003F0D0FC3649201C03F03CF8311C0A223F
:10278000201C03F0A6F8334B114F1978214A381C4E
:1027900001F040FB104D287001F07EF92D78002DDE
:1027A00000D163E10136042E00D15FE1D9E7C046D4
:1027B000333333333333F33F0000000000C06F4046
:1027C000000000000000F03F8802002044040020C8
:1027D0004804002007000020900200203809002053
:1027E000469E0000559E00004B030000699E0000BD
:1027F000420200007C9E00007F9E00008E9E000032
:102800009E9E000098020020B19E0000102700004C
:1028100050020020000000200000B03A00004040BC
:1028200000007E430000204100007F43D99E00004D
:102830009C010020C89E0000CF9E000036B0000022
:102840003C9F0000D59E0000EAA500008813000010
:10285000DE9E000058000020BB4DBC49281C02F041
:10286000DBFFBB49281C02F0C5FFBA4C281C2168BD
:102870000A2203F050F82368002B0FD10123B64938
:10288000281C236002F0C8FFAE4BAD4AB34801F0EC
:102890003BFCB34B187001F0FFF84CE15A1E102AB4
:1028A00000D9BCE001332360AE4C201C00F0C4FB17
:1028B0000590201C00F0B6FB0690201C00F0A8FB41
:1028C000071C201C00F0C2FB0790201C00F0C8FB76
:1028D0000890201C00F0CEFBA34E0799089B059A98
:1028E0000097019102930390069B311C0BA806F000
:1028F000D9FD0BA9281C02F08FFF201C00F066FAFE
:10290000201C00F085FB3C210A3004F06DF8201CEF
:10291000C9B200F03FFB201C012100F045FA9349A9
:10292000201C00F061FA201C00F07EFA0590201CAB
:1029300000F072FA0690201C00F066FA071C201CBA
:1029400000F07AFA0790201C00F07EFA0890201C14
:1029500000F082FA0799089B059A0097019102936B
:102960000390069B311C0BA806F09CFD0BA9281CAC
:1029700002F052FF7E4F381C00F094FFFA21002233
:102980008901381C00F0D6FF7A49281C02F044FF68
:10299000642003F0BFFB281C03F0A2FA201C00F007
:1029A00029FA9621281C890103F092FA7249281C01
:1029B00002F032FF201C00F03FFB0590201C00F0CD
:1029C00031FB0690201C00F023FB0790201C00F038
:1029D0003DFB0890201C00F043FB0990201C00F0F8
:1029E00049FB0799089B00910999059A0193029167
:1029F000069B0390311C0BA806F054FD0BA9281C64
:102A000002F00AFF381C00F04DFFFA210022381CAA
:102A1000890100F08FFF594B03221A708BE058494F
:102A2000281C02F0F9FE4D4F02230025381C33709C
:102A3000256001F0A3FB4A4C207001F02DF8381CF2
:102A400001F07CF8207001F027F8381C01F076F8CE
:102A5000207001F021F8381C01F070F8207001F0AE
:102A60001BF82378AB4266D0357064E0434B0322F9
:102A70001A70002D51D1434B201C43491D6002F0B8
:102A8000CBFE424BFB5C002B55D04149201C02F091
:102A9000C3FE4049201C02F0ADFEEF239B00F95C11
:102AA0000A22201C02F02DFF3B49201C02F0A2FE4E
:102AB0003A4B201CFF18391C02F0AEFE291C1022D4
:102AC000381C06F035FE061C311C201C0A2202F0C0
:102AD00000FF722E10D1201C314902F09DFE012111
:102AE0000C2003F0AFFDFA20C00003F013FB0C2014
:102AF000291C03F0A7FD1EE0612E1CD1201C2949D2
:102B000002F08AFEFA2189000022194800F012FF23
:102B1000FA20C00003F0FEFA0DE00122062D00D1DC
:102B20007BE72149201C02F077FE164A1368591CE6
:102B30001160042BE2DC11B0F0BDC046C046C046B7
:102B400080841E000000000038090020719F0000F2
:102B5000779F000094020020849F0000480400201A
:102B60009002002089020020929F000015210000A1
:102B700044040020AF9F0000BB9F0000880200209B
:102B8000C69F00008C020020F89E00002204000076
:102B9000119F00001F9F00002F9F0000BD03000039
:102BA0003F9F00004A9F0000559F0000C046C0465E
:102BB000F8B5051C0F1C161C0024B44208D02B6865
:102BC000395D1B68281C9847002801D00134F4E7C0
:102BD000201CF8BD704708B5183002F0DDFF08BDB5
:102BE00008B5183002F0ECFF08BD38B5837D0D1C28
:102BF000002B06D0041CC434201C02F0F7FF002870
:102C000001D0002004E0201C291C02F0ACFF0120B0
:102C100038BD08B5183002F0DCFF08BDF7B50193E8
:102C2000FA239B0083600B4B00250833041C45608E
:102C3000036018300F1C161C02F088FF201CC430E3
:102C400002F084FF019B27612675A575201C637522
:102C5000FEBDC046D89F000038B5041C006903F0D3
:102C60007AF8002879D0206903F083F800280ED183
:102C7000206903F088F800281FD0206903F07EF84F
:102C800000281AD0206903F083F8002815D12069A4
:102C900003F034F82069032103F03AF8231CFC33D5
:102CA000DD6F002D04D02368201C9B689847A8473F
:102CB000201C183002F069FF4FE0206903F063F830
:102CC000031C2069002B16D003F018F8206903219B
:102CD00003F01EF8206903F05BF800283DD0201CAB
:102CE000C43002F052FF0123A375FC34A36F002B04
:102CF00033D0984731E003F037F800282DD0206911
:102D000003F046F8251C00280FD0C435281C02F01B
:102D100057FFFF21002803D0281C02F03DFFC1B25D
:102D2000206903F00BF8A07517E01835281C02F095
:102D30005DFF031C2069002B02D002F0D7FF08E0E2
:102D400003F02BF8011C281C02F00DFF206902F093
:102D5000D5FF2069032102F0DBFF38BD08B502482A
:102D6000FFF77AFF08BDC046C402002008B503483B
:102D7000034914221523FFF751FF08BDC4020020A8
:102D8000FC090020002303707047000008B5044BC5
:102D90001B68002B00D09847024B01221A7208BD15
:102DA00040040020001400400378002B0AD0064B9A
:102DB000081C197F072210409143014319779A7A22
:102DC000D209FCD17047C046001400400378002BA4
:102DD00007D0044B07211A7F8A431A779A7AD209BF
:102DE000FCD1704700140040014B19607047C04689
:102DF00040040020034B04211A690A431A6130BFC2
:102E00007047C04600ED00E0024B98693F23184030
:102E10007047C04600140040024B98690005800EC0
:102E20007047C04600140040024B9869C003C00EB2
:102E30007047C04600140040024B98698002C00EE3
:102E40007047C04600140040024B98698001000F93
:102E50007047C04600140040014B9869800E7047CF
:102E6000001400400378002B0AD0064B081C196997
:102E70003F2210409143014319619A7AD209FCD153
:102E80007047C046001400400378002B0BD0064B5F
:102E90003F2211408A011869044901401143196118
:102EA0009A7AD209FCD17047001400403FF0FFFF2E
:102EB0000378002B0BD0064B1F2211400A03186920
:102EC00004490140114319619A7AD209FCD1704733
:102ED00000140040FF0FFEFF70B5161C0278041CA2
:102EE0000D1C002A0AD0191CFFF7BCFF201C311C46
:102EF000FFF7CAFF201C291CFFF7DAFF70BD000096
:102F00000378002B0BD0064B1F2211404A0418698E
:102F100004490140114319619A7AD209FCD17047E2
:102F200000140040FFFFC1FF0378002B0BD0064BBD
:102F30000F2211408A0518690449014011431961A3
:102F40009A7AD209FCD1704700140040FFFF3FFC81
:102F50000378002B09D0054B8A0619698901890974
:102F6000114319619A7AD209FCD1704700140040CC
:102F700070B51D1C0378041C161C002B09D0FFF72C
:102F8000BFFF201C311CFFF7CFFF201C291CFFF7BF
:102F9000DFFF70BD0378002B0AD0064B081C99692F
:102FA0003F2210409143014399619A7AD209FCD1A2
:102FB0007047C046001400400A4B0B4A9A605A788A
:102FC00052B2002AFBDB0949064A51605A7852B2D4
:102FD000002AFBDB0649034A51805A78D209FCD10A
:102FE0007047C046000C00400204000002051100BA
:102FF000044200000378002B05D0034B034A5A809B
:103000009A7AD209FCD17047001400400080FFFF7B
:1030100008B5FFF7EFFF024B18693F23184008BDC2
:103020000014004008B5FFF7E5FF024B18690005E2
:10303000800E08BD0014004008B5FFF7DBFF024B0F
:103040001869C003C00E08BD0014004008B5FFF7A2
:10305000D1FF024B18698002C00E08BD0014004069
:1030600008B5FFF7C7FF024B18698001000F08BDC4
:103070000014004008B5FFF7BDFF024B1869800E31
:1030800008BDC04600140040044B02211A888A4340
:103090001A809A7AD209FCD17047C04600140040C9
:1030A000044B02211A880A431A809A7AD209FCD169
:1030B0007047C04600140040044B01211A880A439F
:1030C0001A809A7AD209FCD17047C0460014004099
:1030D000044B01211A888A431A809A7AD209FCD1BA
:1030E0007047C04600140040F7B52B4B0F1C9A697F
:1030F00020210A439A61294A294B0026051C9A82FD
:10310000284CB7420AD1284B1A7870231A4240D073
:1031100023881A073DD5226901260192281CFFF752
:103120004BFF281CFFF7B0FF281CFFF7C5FF628884
:103130001E4B134063801E4B2380A27A194BD20989
:10314000FBD11C4A08211160C0218900505800029F
:10315000000A5050DA7901210A43DA711A7F0721F7
:103160008A431A77A37ADB09FCD1281CFFF798FF62
:10317000281CFFF7ADFF002F02D001232B70F7BDF5
:10318000002EFAD0074B019A1A61A37ADB09FCD111
:10319000F3E73E1CC2E7C04600040040CE06000034
:1031A000000800400014004038040040FFBFFFFF4B
:1031B000080A000000E100E00368426872B653604C
:1031C00062B67D200138C0B200281DD0202101390F
:1031D000FDD1116A0B42F5D072B65361936062B6AD
:1031E000F02149010139FDD172B68C215360C9002B
:1031F0000139FDD1106A034058425841C0B262B64D
:10320000CD225201013AFDD170470CC8C8070AD53A
:1032100072B6A0215A619A600139FDD19A6162B6F5
:10322000DC239B0009E072B682215A61C9009A60D2
:103230000139FDD19A6162B65023013BFDD170473F
:103240000368426872B63021936053610139FDD141
:10325000A02153600139FDD1106A62B6D4229200D8
:10326000013AFDD10340581E8341D8B27047F7B5EB
:10327000041C0F1C019208250126391C31404B1EED
:103280009941C9B2201C7600013DFFF7BEFFF6B29E
:10329000002DF2D1019A002A06D172B62268636825
:1032A0005A6022685A6162B6F7BDF8B5071C082556
:1032B00000240126381CFFF7C3FF002800D0344348
:1032C0007600013DF6B2002DF4D1201CF8BD70B59A
:1032D00000220E1C5521051CFFF7C9FF0024315D9B
:1032E000281C00220134FFF7C2FF082CF7D170BD63
:1032F00008B5CC210022FFF7BAFF08BD00230374F4
:10330000837443740723C218002111728B4201D0C9
:10331000013BF8E77047000038B5041C0D1C081C81
:10332000002103F035F918225543084B01215A19A1
:103330005268EB569140064ADB019B18201C216025
:103340006360FFF7DBFF201C38BDC04634AA0000D5
:1033500000440041F0B585B00391867C041C151C27
:10336000002E5AD1FFF728FF002857D0201C002D2F
:1033700002D0F021321C01E0EC212A1CFFF777FF7C
:103380000126002101910291351C201CFFF758FFF6
:10339000071C201CFFF754FF012F02D1012816D172
:1033A00032E0019AA318874219D1277CBD4204D28A
:1033B0001F7A37407A1E974102E0EF1B7A4257414D
:1033C000FFB2002F03D1082D08D8657406E00199DB
:1033D000012763181A7A32431A7203E002951A7AA7
:1033E000B2431A727600201C391C0135F6B2FFF781
:1033F0000CFFEDB2002E04D1019B01260133DBB29C
:103400000193019A072AC0D9402D06D9029B237443
:10341000002B07D10123A37404E000202074A074C2
:1034200060740BE0237A002BF7D00023E218127AA5
:103430000399CA540133082BF8D1012005B0F0BD1F
:10344000031C00200139C9B2FF2905D01A780133C5
:103450005040024A105CF5E77047C046F89F0000F4
:103460000B78282B09D004D8102B06D0222B06D19C
:1034700003E03B2B01D0422B01D1012000E00020D2
:1034800070470023037143710370092343700123C4
:1034900081608370C370704710B5041CFFF7F1FFA3
:1034A0000023201CA36110BD0079704710B5081CD3
:1034B0000C1C0721FFF7C4FFE379181A4342584157
:1034C000C0B210BDF8B5051C80680E1C171CFFF7B4
:1034D00015FF0024A868311C0122FFF73BFF0028DC
:1034E0000BD0BC4205D1281C311CFFF7DFFF0028A0
:1034F00004D10134E4B2BC42ECD90020F8BDF8B5E7
:10350000041C80680F1C161CFFF756FE0025A842FD
:1035100016D0A068391CFFF7DAFEA068BE212A1C6D
:10352000FFF7A5FEA068FFF7C0FE70550135092D15
:10353000F8D1A068FFF740FE451E6B425D41EDB239
:10354000281CF8BD10B5141CFFF7D9FF031C002080
:10355000834208D0201C0821FFF772FF237A181A33
:1035600043425841C0B210BD70B5041C0D1C8068A8
:10357000161CFFF721FEA068291CFFF7A8FEA06813
:103580004E210022FFF773FEB178A0680022FFF7FA
:103590006EFEF178A0680022FFF769FE2B78102BF1
:1035A00004D03179A0680022FFF761FEA068FFF720
:1035B00003FEA068291CFFF78AFE2278A068482134
:1035C000FFF755FE142002F0A5FD2378002B02D052
:1035D0000A2002F09FFDA068FFF7EEFD70BD38B530
:1035E000041C0D1C8068FFF7E7FDA068291CFFF78D
:1035F0006EFEB4210022A068FFF739FEA068FFF735
:103600001FFE051CA068FFF7D7FD68426841C0B2E5
:1036100038BD1FB50A780C23102A17D001AC221C24
:10362000FFF790FF0023984210D022793F2A0CD058
:1036300003D809231F2A09D005E00B235F2A05D0F0
:103640000C237F2A02D0002300E00A23181C04B0B8
:1036500010BD37B5041C8068FFF750FE00232371AE
:103660006371A06869460122FFF774FE00282BD021
:10367000201C6946FFF71AFF0028F2D02378002BA0
:1036800005D1201C6946FFF7AAFF002819D1201C8C
:1036900069466578FFF7BDFF854201D9607803E090
:1036A000201C6946FFF7B5FF237960700133237151
:1036B000201C6946FFF7D4FE0028D2D0637901337D
:1036C000CEE701232370E2E737BDF0B589B0041CD3
:1036D0000F1C01930925082A04D9151C0C2A00D9AE
:1036E0000C25EDB2201C391CFFF793FFA84243D0F4
:1036F00005AE201C391C321CFFF724FF0023984222
:103700003BD03B78102B37D00B2D08D00C2D04D09C
:103710001F230A2D04D13F2302E07F2300E05F2313
:10372000321C201C391C3371FFF71EFF62782B1CE2
:10373000954200D2131CDAB26370019B002B1BD19F
:10374000AA4219D965701D1C23799D4214DA03A978
:10375000EAB2201CFFF7B6FE201C03A96678FFF72B
:1037600058FF864201D9607803E0201C03A9FFF7C7
:1037700050FF60700135E7E70123181C09B0F0BD68
:1037800008B58068FFF75CFD013843425841C0B27C
:1037900008BD00000939C9B270B5051C022903D85B
:1037A0000E4B4900CC5A00E00D4CEB78002B11D0A9
:1037B0002B78002B0ED102F0A7FC061C281CFFF76B
:1037C000DFFF002809D102F09FFC23B2C01AB042EB
:1037D00003D2F3E720B202F09DFC70BDF8A0000018
:1037E000EE02000010B5041C8068FFF7E5FCA0683D
:1037F000FFF77EFD2278A0684421FFF738FDA3780B
:10380000002B03D06178201CFFF7C4FF10BD10B55A
:1038100053781478DB02E4001C430B78A4B2102B1D
:103820000BD1D1799079081AC00103F087F80F23E2
:103830009C431038E4000419A4B220B210BD00006B
:1038400030B585B001AA051C0C1CFFF77BFE0028D3
:1038500005D0281C211C01AAFFF7D9FF00E002486F
:1038600000B205B030BDC04680E4000008B5064B8C
:10387000984206DB03F012FEF021890503F054FBA9
:1038800000E0024808BDC04681E4FFFF0000FEC220
:10389000034BA5221A72DA79D209FCD17047C046CF
:1038A00000100040044B02211A788A431A70DA791A
:1038B000D209FCD17047C04600100040064B0221DF
:1038C0001A788A431A70D979034AC909FBD19379C6
:1038D00001210B4393717047001000400E4B0F4ABB
:1038E00030B59A600E4A5A605A78D209FCD10D4A16
:1038F000094B0D495A800422CA670C4BC02149006C
:103900005A50C02189005D58094C2C405C501A6007
:103910000123037030BDC046000C004002040000CB
:10392000020311000342000004E100E000E100E0B6
:10393000FFFF00FFF8B50378051C0F1C161C002BB9
:1039400001D1FFF7CBFF4A4C00232370E379DB0959
:10395000FCD1484B9F4225DC002F23D0FA235B008B
:10396000BF02FA21F818890002F0E8FF424B9842A2
:103970001CDC424B98421DDC414B98421EDC414B03
:1039800098421FDC404B984220DCFF2822DC7F2835
:1039900024DC3F2825DC1F2826DC0F2827DD012317
:1039A000102226E080220B23D20122E080220A236B
:1039B00092011EE08022092352011AE0802208238E
:1039C000120116E080220723D20012E08022062393
:1039D00092000EE08022052352000AE00423802298
:1039E00007E00323402204E00223202201E0002319
:1039F00008220121002E24D060790B260143617139
:103A000060780F2188433043607060780B401B0161
:103A1000014019436170237804210B432370E3793B
:103A2000DB09FCD1FA26B600564380239B00281CF4
:103A3000F618FFF72DFF237802221343B6122370E6
:103A400010E020790143217160780F210B408843F9
:103A500003436370237804218B432370E379DB09EC
:103A6000FCD1DFE7E379DB09FCD1301CF8BDC046AF
:103A7000001000407F3E0000FF1F0000FF0F00000D
:103A8000FF070000FF030000FF010000014B0022C0
:103A90001A7070474404002010B588B000236A46AD
:103AA0001370082822D802F0E7FE05080B0E111447
:103AB000171A1D006846134916E06846124913E0BC
:103AC0006846124910E0684611490DE06846114900
:103AD0000AE06846104907E06846104904E0684675
:103AE0000F4901E00F49684605F015FD0E4C0F49DE
:103AF000201C01F07FFE201C694601F07BFE08B00F
:103B000010BDC04610A5000024A500003BA5000084
:103B10004FA5000064A500007BA5000093A5000050
:103B2000A8A50000BEA5000038090020D6A5000009
:103B300008B500F0AFFB002008BD0000F0B5051C83
:103B4000A4358FB0041C0021FA22281C05F0F4FBD8
:103B500000210F2202A805F0EFFB0AAE00210F2280
:103B600006A805F0E9FB0F220021301C05F0E4FB5C
:103B70001A4B281CFE33598A05F094FC184F02A8F2
:103B8000B98A05F08FFC3B1C5033198806A85437BE
:103B900005F088FC3988301C05F084FCFA239B0072
:103BA00001930096201C291C02AA06AB00F0DCFC45
:103BB000012804D10B4BE0540B4BE05406E00228E3
:103BC00006D1084B0122E054074BE254002003E0E9
:103BD0000338431E984101300FB0F0BDD8A8000053
:103BE000B0A600002A0400002B040000E1231B0201
:103BF00010B54360012301700374041CC82002F057
:103C000089FA201C00F02EFB9620400002F082FA78
:103C1000201CFFF793FF201CFFF790FF10BD000052
:103C2000F0B5051CA4358BB0041C0E1CFA22002133
:103C3000281C05F081FB00210F2202A805F07CFB67
:103C400000210F2206A805F077FB114AA4235B0090
:103C5000D15A281C321C05F025FC0E4F02A83988C9
:103C600005F020FCB98806A805F01CFCC8230093C9
:103C7000201C06AB291C02AA00F06CFC02230128C0
:103C800002D1054BE6540023181C0BB0F0BDC04612
:103C9000D8A80000B0A600004A030000F0B5061C3A
:103CA000A4368BB0041CFA220D1C301C002105F038
:103CB00043FB00210F2202A805F03EFB06A80021CD
:103CC0000F2205F039FB1A4BE35C012B02D0022BCB
:103CD00004D029E00720854227D802E00720042DE0
:103CE00023D8144B2A1C48331988301C05F0DAFB02
:103CF000114F02A8398805F0D5FBB98806A805F050
:103D0000D1FB64230093201C311C02AA06AB00F0F7
:103D100021FC012803D1094B0020E55405E00238BD
:103D2000431E9841013000E008200BB0F0BDC046B2
:103D30002A040000D8A80000B0A600004B03000031
:103D4000F0B5061CA4368FB0051C0021FA22301CE9
:103D500005F0F2FA00210F2202A805F0EDFA0AAFF1
:103D600000210F2206A805F0E7FA0F220021381CD7
:103D700005F0E2FA244B301CFE33598E05F092FB1D
:103D8000224C02A8218805F08DFBA18806A805F029
:103D900089FBA31DD98F381C05F084FBFA235B0037
:103DA00001930097281C311C02AA06AB00F0DCFB33
:103DB00001281DD10F22002102A805F0BDFA218B98
:103DC00002A805F06FFB4C340F22002106A805F075
:103DD000B3FA218806A805F065FB0D4B281C02A943
:103DE00006AA00F010FB0138431E9841C0B208E05B
:103DF000022805D00338431E98410323181A00E017
:103E000001200FB0F0BDC046D8A80000B0A6000049
:103E1000204E0000F0B5644B071C99B00025A43774
:103E2000C5540391041C291C161C381CFA2205F0E9
:103E300083FA291C142204A805F07EFA291C1422F6
:103E400009A805F079FA0EA8291C142205F074FAC5
:103E5000039B0720DF2B00D9A4E0301C05F063FB97
:103E600085420BD2735D1A1C303A092A03D9413BB3
:103E7000052B00D991E00135EDB2F1E74B4B039AE8
:103E8000998A381C331C05F00DFB494D04A829887C
:103E900005F008FBA98809A805F004FB2B1C483392
:103EA0000EAE1988301C05F0FDFAFA239B00019331
:103EB0000096201C391C04AA09AB00F055FB012810
:103EC00065D10021142204A805F036FA002114223D
:103ED00009A805F031FA13AF00211422301C05F0B7
:103EE0002BFA14220021381C05F026FAA98904A80F
:103EF00005F0D8FA298C09A805F00DFB0235698F69
:103F0000301C05F008FBE98F381C05F004FB294B39
:103F100000970193201C04A909AA331C00F0FEF9A4
:103F2000051E012D2AD1FA22201C2349520000F03F
:103F300062FA231CA2331B88002B1DD01F4E201CAD
:103F4000311C113005F00AFB05F0A8F9EF239B00A6
:103F5000E054311C002005F001FB194B071CE6184A
:103F600000216522301C05F0E7F9301C391C642261
:103F700005F0E0FA0C4BE554002013E00228FBD0DA
:103F80000520032D0ED0042D09D002200AE00228BE
:103F900007D00328F9D1062004E0072002E0281CFE
:103FA00000E0012019B0F0BD22040000D8A80000F4
:103FB000B0A6000020BF0200E8A50000E7A50000B1
:103FC000BD030000F0B52C4E8BB0051C0C1C081C6A
:103FD000311C05F096FA002806D0201C274905F070
:103FE00090FA0723002844D12E1CA436301C00214F
:103FF000FA2205F0A1F900210F2202A805F09CF990
:1040000000210F2206A805F097F91D4B221C4C3306
:104010001988301C05F046FA1A4F02A8398805F0B5
:1040200041FAB98806A805F03DFAFA235B0000932F
:10403000311C281C02AA06AB00F08CFA061E012EC9
:1040400013D1201C0C4905F05CFA002802D1CF23C3
:104050005B00EE54201C094905F053FA00239842F6
:1040600007D1CF225200AB5403E0023E731E9E41A3
:10407000731C181C0BB0F0BD7C9E0000EBA500006B
:10408000D8A80000B0A60000F0B5051CA4358BB080
:10409000041C0E1CFA220021281C05F04DF90021F9
:1040A0000F2202A805F048F900210F2206A805F00A
:1040B00043F9124B321CFE33D98A281C05F0F2F961
:1040C0000F4F02A8398805F0EDF9B98806A805F068
:1040D000E9F964230093201C291C02AA06AB00F016
:1040E00039FA012803D1074B0020E65403E00238D7
:1040F000431E984101300BB0F0BDC046D8A8000067
:10410000B0A6000042020000F0B5061CA4368BB039
:10411000071C141C301C0021FA221D1C05F00CF990
:1041200002A800210F2205F007F906A800210F229E
:1041300005F002F90F4AA2235B00D15A301C221C61
:104140002B1C05F0AFF90C4C02A8218805F0AAF948
:10415000A18806A805F0A6F964230093381C06ABD5
:10416000311C02AA00F0F6F9023843425841C0B2AD
:104170000BB0F0BDD8A80000B0A6000030B5051CFB
:10418000A43585B0041C0021281CFA2205F0D4F8BF
:10419000684600210F2205F0CFF800232B70231C66
:1041A0005522A5331A700A4B6846198805F07AF92A
:1041B000201C291C022200F0E2F9201C694664221E
:1041C00000F019F90138431E9841400005B030BD98
:1041D000B0A60000074BE12212025A60064A0749C6
:1041E0009A606422DA6001221A7400225A54044947
:1041F0005A54704748040020881300002B04000024
:104200002A040000F7B5181C0191161C1F1C05F0AC
:104210008AF9051C0020041CAE4210D3731B9C427B
:104220000AD8019B391C18192A1C05F06DF80028C2
:1042300004D00134A4B2F1E7002000E00120FEBD6B
:1042400008B5031C002904D10448191C00F0DCFA4D
:1042500003E00348191C01F03BFE08BD140A0020CE
:104260007408002008B5031C19784068FFF7E8FFC0
:1042700008BD000008B5002803D1044800F0C5FAC5
:1042800002E0034801F02CFE08BDC046140A0020DD
:104290007408002008B50078FFF7ECFF08BD0000A7
:1042A00008B5031C002904D1191C044800F01AFAAF
:1042B00003E00348191C01F031FE08BD140A002078
:1042C0007408002038B5041C0D1C2078002804D088
:1042D000291C0134FFF7E4FFF7E738BD08B50028D3
:1042E00003D1044800F008FA02E0034801F007FE99
:1042F00008BDC046140A00207408002008B5002834
:1043000003D1044800F020FA02E0034801F001FE66
:1043100008BDC046140A002074080020F0B5051C32
:1043200085B01135041C0391019200219022281CB4
:10433000029305F001F8231CA23300261E8001F031
:10434000E3FE371C009001F0DFFE009BC01A0B9BC0
:10435000984245D22078FFF7C1FF00280ED08E2F5B
:104360000CD82078FFF7CAFFE3195874231CA23336
:104370001A887E1CB6B201321A80371C231CA23365
:104380001E88201C291C321C039BFFF73BFF0028C2
:1043900028D1019B002B06D0201C291C321CFFF7C2
:1043A00031FF002820D1029B002B06D0201C291CA5
:1043B000321CFFF727FF002818D10A9B002B06D0DC
:1043C000201C291C321CFFF71DFF002810D101F012
:1043D0009BFE009B9842B6D201F096FE0090B2E799
:1043E000002006E0012004E0022002E0032000E0BB
:1043F000042005B0F0BD07B50023019200931A1CFC
:10440000FFF78CFF0EBD13B51C1C00230093019415
:10441000FFF784FF16BD000070B5002803D10E48D9
:1044200000F070F916E001F06FFE051C0B4C201C2B
:1044300001F065FD261C002804D001F065FE401B3C
:10444000632803D9301C01F055FD03E0201C01F066
:1044500060FDEBE770BDC046140A00207408002020
:10446000F0B585B003920293037C041C0D1C002B55
:1044700002D00078FFF7D0FF2178281C261CFFF718
:1044800021FF1136E06801F045FE00219022301C2A
:1044900004F052FF231C0025A2331D8001F034FEDE
:1044A0002F1C019001F030FE019BC01A0C9B98421A
:1044B00045D22078FFF712FF00280ED08E2F0CD89F
:1044C0002078FFF71BFFE3195874231CA2331A88C6
:1044D0007D1CADB201321A802F1C231CA2331D8813
:1044E000201C311C2A1C039BFFF78CFE002828D1BE
:1044F000029B002B06D0201C311C2A1CFFF782FED9
:10450000002820D10A9B002B06D0201C311C2A1C1D
:10451000FFF778FE002818D10B9B002B06D0201C3B
:10452000311C2A1CFFF76EFE002810D101F0ECFDB3
:10453000019B9842B6D201F0E7FD0190B2E700205E
:1045400006E0012004E0022002E0032000E0042055
:1045500005B0F0BD1FB5002400940194069C0294A0
:10456000FFF77EFF04B010BD1FB5069C0094002429
:104570000194079C0294FFF773FF04B010BDF8B5D7
:10458000037C041C0E1C171C002B02D00078FFF7C4
:1045900043FF351CAB1B9BB2BB4205D22878217868
:1045A000FFF77EFE0135F5E7E06801F0B3FDF8BDE9
:1045B000154B70B58000C45801262268257E937B78
:1045C0001D40637E1D40354204D0201CA3689847DF
:1045D000226896730226354204D0201CE36898476F
:1045E000226896731026354204D0201C2369984710
:1045F000226896732026354204D06369201C9847B0
:1046000023689E7370BDC0461010002008B50020BE
:10461000FFF7CEFF08BD08B50120FFF7C9FF08BDB1
:1046200008B50220FFF7C4FF08BD000008B5024826
:1046300001F09EFC08BDC0467408002008B5024881
:1046400001F096FC08BDC04638090020F7B5164FAA
:104650001649381C01F0DAFA1549164801F0D6FA65
:104660001549164801F0D2FA1549164801F0CEFA5C
:104670001549164801F0CAFA154D03260124281CD5
:10468000144901F0C3FA391C0096231C019400223E
:10469000114801F049FC0096291C01941F221E2399
:1046A0000E4801F041FCF7BD000A0020000800425E
:1046B000000C0042040A002000100042080A0020FA
:1046C00000140042FC090020001800420C0A0020DF
:1046D000100A0020001C0042740800203809002045
:1046E0003F20704713B502686B46D9710733546891
:1046F000191C0122A04716BD08B50069022100F06F
:1047000033FC08BD08B50069032100F043FC08BD77
:1047100038B50D1C041C131C006903212A1C00F071
:1047200035FD002801D10123636038BD10B5054C6B
:1047300023685A1C04D10368DB6898472060031C77
:10474000181C10BDAC000020074A08B51368591C9E
:1047500004D0012149421160181C03E000690221C4
:1047600000F006FD08BDC046AC00002008B5037887
:104770000349023303704222024800F0BDFD08BD28
:1047800068000020DF0E002010B50178031C42787D
:104790000020A12908D1212A2FD118481849072221
:1047A00000F0AAFD012028E0212926D1202A05D1E8
:1047B00013490722114800F033FC04E0222A10D1EB
:1047C0009A780F4BDA710E4B96221968D2009142FB
:1047D00010D1DC7901231C400CD1FA2001F06EF9D4
:1047E0000AE0232A09D1DA789B7812021A43054B92
:1047F0001A6002E001F068F9002010BDDF0E002011
:104800005C0000206400002070477047064BFA21CE
:1048100089009960054900220831196004495A60ED
:1048200019611A767047C046140A002088AE00004D
:10483000DF0E002070B5C2B219495301CB189E6833
:10484000184DC0242E40A40526439E60164E8001BC
:1048500009683018083258605201505C0726B0438E
:104860000126304350549E6935402C439C610F4CC7
:104870005C61505C7024A0431024204350549C6819
:104880000B488A182040802464032043986098686D
:104890004021800B8003986053790B43537170BDA6
:1048A000E80E0020FFFFFF8F000D00203C0B0020D2
:1048B000FF3F00F038B5041C08CC01211A78051C14
:1048C0000A431A708022201C0021520004F034FD9B
:1048D0002B689A78D107FCD45C6238BD134BF0B5D5
:1048E0001B6899035A029B01C90ED20E5B0F1F2948
:1048F00000D105211F2A00D11D22072B00D103233F
:1049000004688E01278D0A491F25394031432185CE
:1049100001682A400C8DAC4322430A8502681903C2
:10492000108D044B03400B431385F0BD24608000C1
:104930003FF8FFFFFF8FFFFFEFF3108303600123BA
:10494000436072B670470368002B02D162B6BFF3B2
:104950006F8F704737B50569041C6846002D12D16A
:10496000FFF7EAFF019B013B03D3621DD57FEDB248
:10497000F9E768460193FFF7E6FF0020854217D06C
:10498000206AE36913E0FFF7D7FF019B0025013B95
:1049900004D3221C34321578EDB2F8E7684601934F
:1049A000FFF7D1FF0020854202D0206BE36AC01AD6
:1049B0003EBD0000436810B51A68037A01215B010F
:1049C000D318FF339A7A0A439A72037A42685B01DA
:1049D000D318C2689C6891040B4A090922400A4313
:1049E0009A60037A42685B01D3189A684021920B5F
:1049F00092039A6043681A68037A08335B01D318FC
:104A00001A790A431A7110BDFF3F00F0F7B5056926
:104A1000041C0E1C171C6846002D1FD1FFF78CFFCD
:104A2000019B013B5A1C06D0621DD17F5A1E0029F2
:104A30003AD0131CF6E768460193FFF784FF002580
:104A4000E369BD4235D0226A934232D25A1CE261F8
:104A5000A269D3181B7873550135F1E7FFF76CFF96
:104A6000019B013B5A1C08D0221C343215785A1E77
:104A7000EDB2002D18D0131CF4E768460193FFF740
:104A800062FF0025E36ABD4226D0226B934241D3E8
:104A900022E0621D0021D17730321678581E8E42F6
:104AA00014D1031C5A1CF4D168460193FFF74BFF45
:104AB00038E0226A934235D10023E3610123236168
:104AC0006846FFF739FF019B013BEBE71170201CA3
:104AD0000193FFF76FFFF6E7226B934222D1002389
:104AE000E36223616846FFF727FF019B013B5A1CE5
:104AF000DAD0221C34320021117001321678581E8F
:104B00008E4201D1031CF2E71170201C0193FFF7C4
:104B100051FFEAE75A1CE262A26AD3181B78735568
:104B20000135AFE7281CFEBD37B54368027A1B6824
:104B3000083252019A18041CD0790123FF2118422F
:104B400053D0D371A068656962680140002D20D1FF
:104B500049015218916863618904890C2162A16A34
:104B600068465160621DD377FFF7E6FE019B013B6B
:104B70005A1C33D0221C34321178581EC9B201326B
:104B8000002903D001930123137023E01170031C4B
:104B9000EEE74B01D3189A68A5699204920C226340
:104BA0000022626168465D60FFF7C6FE019B013B23
:104BB00001E011702B1C591C10D0221C3432012032
:104BC0001070621DD17F5D1EC9B230320029F0D055
:104BD000019310706846FFF7B6FE06E06846019341
:104BE000FFF7B1FE201CFFF7E5FE37BD37B5002308
:104BF0006C46E3710734201C0D1CFFF7B7FD2B68D2
:104C00001818286001F0F6FD211C01F0ADFD2B689D
:104C10001818286020783EBD03290BD10D4BB22215
:104C20001B685200985C802149420143995402213B
:104C300068220CE001290CD1064B92221B6852001D
:104C4000985C802149420143995402212822FF3275
:104C500099547047E80E002038B5304B00240121EC
:104C6000051C1A201C7001F093FC1A20012101F090
:104C7000E9FC2B4B192001211C7001F089FC192043
:104C8000012101F0DFFC274B2021DA6901200A43D2
:104C9000DA61254B06241A7802431A70234B0F223F
:104CA00019789143197019782143197020490C78AB
:104CB0002043087019780A401A701A7860210A4354
:104CC0001A701C4B1C4A5A805A78D209FCD11B48D6
:104CD00001F014FA1A4C201CFFF7ECFD201CFFF722
:104CE000FDFD23687F2219780A401A701A78042182
:104CF0000A431A701A890C218A431A81C121114A68
:104D0000890050580002000A5050802111601A7822
:104D100002210A431A7001232B7038BDFC0C0020BD
:104D2000E40E002000040040584400413C4400418F
:104D300059440041000C0040064000008557000027
:104D4000E80E002000E100E00078002810D0094BB8
:104D500001211B681A898A431A811A8B08210A4388
:104D60001A831A8B04210A431A83034B00221A6008
:104D70007047C046E80E0020EC0F00200F4B9A69E8
:104D8000920B92039A611B680222FF331A72987980
:104D90008022524202439A711A7A9007FCD5084B3E
:104DA000081C997A7F221040914301439972997AA5
:104DB000802252420A439A727047C046E80E002091
:104DC000005000410078002805D0034B01211B68EA
:104DD0001A890A431A817047E80E002010B50B7932
:104DE0000C1C002B0BD1081CFFF7CEFC002804D1B3
:104DF000094B9A69920B92039A6101200BE001F032
:104E0000F9FC211C01F0E4FC0028F6D1024B9A6960
:104E1000920B92039A6110BDE80E0020F8B50D1CAC
:104E2000832A16D1CAB242495301CB189C69414822
:104E3000AD012040C024A405204398613E480832BB
:104E400045195D610B685201D15C7020814340209F
:104E500065E0022A45D1382001F09AF9374B344FEA
:104E60008026036076000023421D036203614361D4
:104E7000C36147608560C660D3772F32041CC3626C
:104E800003631370301C537004F034FAA061301CBB
:104E900004F030FAFF232A1C1A405201A062BF1806
:104EA000B968244A07260A40C02189050A43BA6026
:104EB000A16862681940126808314901885CAD0038
:104EC000B043032630438854A16862680B405B01FD
:104ED000A169D3185960201CFFF76CFD184BEC50EA
:104EE00025E0822A1ED1CAB211495301CB189C6910
:104EF0001048AD012040C024A405204398610E480D
:104F0000083245195D610B68520199180C798020AF
:104F1000404220430871D15C70208143302001431E
:104F2000D15404E0002A02D1081CFFF783FCF8BD2D
:104F3000E80E0020FFFFFF8F3C0B0020B8AE000002
:104F4000C00E002038B5051C0124064BA200D25823
:104F5000002A06D0211C281C0134FFF75FFFE4B2B1
:104F6000F3E738BDB000002008B5084B8A00D058E0
:104F7000002803D003689B68984706E0C9B2044B39
:104F80004901591888688004800C08BDC00E0020B3
:104F9000E80E002010B50C1CFFF7E6FF00280CD02F
:104FA000064BE1B21B680831490159184A79802340
:104FB0005B4213434B710223CB7110BDE80E0020FE
:104FC00070B5CAB2134B144854018901591803191A
:104FD00059609D681149083229408025AD02294356
:104FE000996099684026890B89039960036851018B
:104FF00059180D7935430D715101591889794D06AC
:10500000FAD551015918C979CD07FAD50419A06804
:10501000C0B270BD000D0020E80E0020FF3F00F080
:1050200038B50C4B141C1B680D1CFF335A794021FA
:105030000A435A710021FFF7C3FFA04200D9201C88
:105040000023A34204D0044A9A5CEA540133F8E7EF
:1050500038BDC046E80E0020000D002010B5C9B2D2
:105060000C48490143189A689204920C3F2A08D9C7
:10507000141C9A68403CA404920BA40C9203224393
:1050800002E09A68920B92039A6041188868C0B255
:1050900010BDC046E80E0020F0B51C1C2F4B85B09B
:1050A0001B68061C0D1C0292002B51D02C4F397826
:1050B000C9B2002902D1192001F0C4FA64233B705F
:1050C000284BAA00D058002805D0036802995B68D5
:1050D000221C984740E0301C291CFFF745FFA042E6
:1050E00004D2301C291CFFF73FFF041C291C301C74
:1050F000FFF7B4FF1C4FE9B24A01019139680392EE
:105100008B18FF335A7A01210A4318495A72AB01AE
:10511000C9180298221C04F006F9002C1BD0301C80
:10512000291CFFF721FF002815D1019B3A6808339D
:105130005B01D31819794020014319710121D971FC
:1051400003995318FF339A7A01210A439A7202E0B5
:105150000120404200E0201C05B0F0BDEC0F002013
:10516000E40E0020C00E0020E80E0020000D0020FC
:1051700013B56C460734221C0123FFF78DFF01286D
:1051800001D1207801E00120404216BDF0B51C1C81
:105190003F4B85B01B680E1C0292002B6AD0802307
:1051A000DB019C4266D83B4D2978C9B2002902D167
:1051B0001A2001F047FA642300222B700092002C81
:1051C00056D0354DF7B22B6801933B1C0833019A3A
:1051D0005B01D3189B79DB091AD0304B3049186832
:1051E00001F05EFB2F4B1721584301F059FB3B1C8C
:1051F0000833019A5B01D318DB799A0708D42A4B4C
:105200009A5D002A38D1421E002835D0101CEEE7E6
:10521000254B00229A55251E3F2D00D93F25234AB4
:10522000B301D318181C02992A1C039304F07BF8CD
:10523000194A7B01D318039AA9045A619A69890C07
:10524000920B92030A439A613B1C019A08335B015B
:10525000D3180222DA715979802252420A435A71D4
:10526000009B029A5B1952190093641B0292A6E7F5
:1052700000980BE0012008E001229A557B01ED180F
:10528000AB69101C9B0B9B03AB61404205B0F0BDAA
:10529000EC0F0020FC0C0020E80E0020DC000020B9
:1052A00040420F0070110100340B00203C0B002025
:1052B00070B50E4D1C1C8B01ED18281C0E1C111C0A
:1052C000221C04F030F8F6B20949760189194D61C3
:1052D0008A69084B201C13408B618B69A2049B0BCD
:1052E000920C9B0313438B6170BDC0463C0B0020A6
:1052F000E80E0020FF3F00F0F7B5114B01901B783E
:105300000F1C141C002B19D10E4B1E78002E01D13E
:10531000151C08E00C4D0D482E888019361904F034
:1053200002F82E800AE0002D08D0BA192B1C019833
:105330000021FFF7BDFF36182D1AF4E7201CFEBD33
:10534000DE0E0020DC0E0020320B0020310A00208F
:10535000F8B50E1C00AF151E012D28D9D31DDB0892
:10536000DB006A46D21A9546081C04F0DCF80130CE
:105370006C4640000323207063700222AA420ED2C2
:105380003378002B0BD0511CC9B20136A354A9426B
:1053900004D0002302326354D2B2EFE72A1C05483E
:1053A000211CFFF7A9FF431E9841C0B200E0002076
:1053B000BD46F8BDDF0E002008B5044B00221A7070
:1053C000034B04491A88FFF797FF08BDDC0E002045
:1053D000320B0020310A0020F0B5204A87B00123AB
:1053E0000026009102A91370051C0296FFF7FEFB30
:1053F00003AC092701903A1C201C311C03F09CFFD0
:1054000002236370A023E371FA232372029B01221B
:10541000DB196380019B62712371104A009B277026
:105420001670BB4205D1281C211C1A1CFFF764FF13
:1054300011E00B4B01221A700A4B211C3A1C281C4C
:105440001E800296FFF758FF281C02A9FFF7CEFB2B
:10545000281CFFF7B1FF012007B0F0BDDE0E0020D1
:10546000DC0E0020320B002070B5CE788AB0051C0F
:105470000C1C022E08D1C9882348FFF7ADFF031C7E
:10548000581E8341D8B23DE001F0B4F9211C01F06F
:1054900080F9002803D0C3171B1AD80F32E0012E61
:1054A00004D1E2881949112A27D823E0032E29D1F3
:1054B000A278002A05D11649E2880B78934219D8C0
:1054C0001BE0022A03D1A279281C124904E0012A18
:1054D00005D1A2791049281CFFF73AFF12E0032AF0
:1054E00010D101F087F901A901F063F9A279281C14
:1054F00001A9F1E7D2B2002A00D10A78281CFFF7EF
:10550000FBFE01200AB070BDDF0E0020D6AE000009
:10551000D2AE0000E8AE0000C8AE000073B5051CB6
:1055200048780C1C0B2878D801F0A6F9081C7728BD
:10553000773E4306474B686F00206FE0097801AA69
:10554000002903D111705170281C09E00023137049
:105550005370334B1B78012B00D11370281C002192
:1055600002234FE08A780023012A04D101AA137094
:1055700053702C4BEEE72A4A137049E08E78012EC7
:1055800007D1284B01AA00211E701170281C331C62
:1055900038E0002E08D1224A01231370224A916973
:1055A000890B8903916138E0A178281CFFF7E6FB9D
:1055B00033E0281CFFF758FF30E0281C00211B4A6D
:1055C0001FE00A780020D30628D1281CFFF7BAFC78
:1055D000A2781549154B02241A600A682A23FF3362
:1055E000D05C2043D0544A20FF30145C01231C437C
:1055F00014548A69920B92038A610EE00C4A281CAB
:1056000000210123FFF754FE07E08A78084B1A6057
:10561000054B9A69920B92039A61012076BDC046B0
:10562000300A0020DD0E0020E80E0020EC0F0020E4
:10563000E00E0020F8B54B4B071C1C78002C00D066
:105640008EE0494D2868838B19070DD5201CFFF784
:10565000F1F82B6810201A1CFF32917A01439172E5
:10566000424A146008229A832B689A8B50071FD5F0
:1056700004229A833E4B1A78002A0AD01A78013AFB
:10568000D2B21A701B78002B03D11A20012100F02E
:10569000D9FF384B1A78002A0AD01A78013AD2B2C8
:1056A0001A701B78002B03D11920012100F0CAFFCA
:1056B0002B68FF331A7AD10626D510221A725A792E
:1056C00040210A432C495A710A786023381C1A4237
:1056D00002D1FFF723FF01E0FFF780FB002806D08F
:1056E0002B688022FF33997952420A4301E0234B11
:1056F00020229A712B68FF331A7A500604D5402273
:105700001A72597A0A435A722968FE230E8C0024B1
:105710001E40E1B2002E23D0321C012322411A4246
:1057200016D0221C2868083252018218D0791842FB
:1057300003D1D279DA401A4207D0114BA200D058D7
:10574000002809D003681B6898470123A3409E43A3
:105750000134092CDDD103E0381CFFF75DFAF4E7D2
:10576000F8BDC046DC0E0020E80E0020EC0F002043
:10577000FC0C0020E40E0020000D0020FF50004132
:10578000C00E002008B50248FFF754FF08BDC04610
:10579000DF0E0020014A024B1A60704700500041A2
:1057A000E80E0020F7B58A18061C0D1C01920C1C8F
:1057B000019B671B9C4207D0336821781B68301C13
:1057C000984701340028F3D1381CFEBD08B50368A2
:1057D000C9B21B68984708BD38B5051C0C1C081ECB
:1057E00007D003F0A0FE2B68021C5B68281C211C5C
:1057F000984738BD08B5FFF7EFFF08BD08B5036847
:105800001B68984708BD000008B50249FFF7E4FF90
:1058100008BDC046E8A5000038B5041CFFF7DCFF52
:10582000051C201CFFF7F0FF281838BD38B5041CF4
:10583000FFF7E4FF051C201CFFF7E6FF401938BD09
:10584000F0B58DB0161C0BAB002201900C1C1A7029
:10585000012E00D80A266D462B35201C311C01F084
:1058600063F8201CCFB2311C01F01AF8291C041C6B
:10587000092F01D8303700E03737FFB22F70013DD4
:10588000002CEAD10198FFF7A7FF0DB0F0BDF8B5E5
:10589000041C0D1C161E04D10368C9B21B6898476E
:1058A00012E00A2A0DD100290ADA2D21FFF7A6FFFE
:1058B0006942071C321C201CFFF7C2FFC01903E01D
:1058C00000E0D2B2FFF7BCFFF8BD08B5FFF7DFFF7D
:1058D00008BD38B5041CFFF7DAFF051C201CFFF7D4
:1058E00093FF281838BD08B5002A02D1FFF76EFFD4
:1058F00002E0D2B2FFF7A4FF08BD08B5FFF7F3FF3F
:1059000008BD38B5041CFFF7EEFF051C201CFFF78F
:105910007BFF281838BD38B5041CFFF7E4FF051CD1
:10592000201CFFF771FF401938BD00000000000087
:10593000F7B51C1C08AB1B78071C211C101C151C80
:10594000009300F069FF002802D1381C504907E09D
:10595000281C211C00F060FF012804D14D49381C8F
:10596000FFF73AFF7CE0281C211C404B3E4A01F027
:1059700071F8002802D0381C4749F1E7281C211C87
:105980003B4A3C4B01F052F80028F4D1281C211C62
:10599000394A3A4B01F04AF8002808D02D21381C2A
:1059A000FFF72CFF802109060190641800E00190A8
:1059B0000026334A334B00998E420AD0101C191C22
:1059C000314A324B02F0E2F80136021C0B1CF6B2EF
:1059D000F1E7281C211C01F0BDFD0D1C041C01F089
:1059E0009FF8061C03F02AFB0B1C021C291C201C20
:1059F00002F0C6FF0A22041C0D1C381C311CFFF7E4
:105A00001FFF019B0099C618002904D0381C2349A8
:105A1000FFF7E2FE3618009B002B20D01A4A1B4BE2
:105A2000201C291C02F01CFD0D1C041C01F078F840
:105A300001900A220199381CFFF702FF36180198DD
:105A400003F0FCFA0B1C021C291C201C02F098FF1E
:105A5000009B041C013BDBB20D1C0093DBE7301CF8
:105A6000FEBDC046C046C046000000E0FFFFEF415B
:105A7000000000E0FFFFEFC1000000000000000098
:105A8000000000000000E03F000000000000244093
:105A9000F3AE0000F7AE0000FBAE00000B9E00006E
:105AA00037B5041C0698C1B20091201CFFF740FFD7
:105AB000051C201CFFF7A8FE28183EBD014B1860EE
:105AC0007047C046D8000020024B012252421A60A3
:105AD0007047C046D8000020154A1368581C25D0CE
:105AE000013B1360002B21D172B6124A124B0432D3
:105AF0009A4207D8BFF34F8F104A114BDA60BFF3B9
:105B00004F8F11E00F4B197DC807FBD5188B202153
:105B1000FF319208520001431983DA610A4A1A8060
:105B20001A7DD107FCD5E5E7C046FDE77047C046C2
:105B3000D800002000200000030200000400FA0545
:105B400000ED00E00040004102A5FFFF10B500217C
:105B5000041CA42203F0F0FB221CA4320023201C0E
:105B60001360536010BDF8B5051CA4352E68041CE5
:105B70000F1C701CA42100F0D7FE231CA8331B6847
:105B8000994201D0A7552960F8BD021C0023A43218
:105B9000A83013600360704738B5021C041CA83499
:105BA000A43223681268934207D0C55CA421581C14
:105BB00000F0BAFE281C216001E00120404238BDFF
:105BC000031CA433A8301A680368D01A00D5A43087
:105BD0007047031C021CA833A4321B68126893424E
:105BE00001D0C05C01E0012040427047031CA43397
:105BF00010B5041C1868A421013000F095FEA834EB
:105C00002368C81A43425841C0B210BD01607047B2
:105C1000F7B508AC267804689D1E27686C1EA54160
:105C2000ECB2920705683A4327063A432A600268B5
:105C3000072529405068B501002C00D05C0329439A
:105C400001430C435460F7BD30B50368C0251C68A0
:105C5000AD0312052A402243C024A40209042140B6
:105C60001143196003685A6814435C6030BD0368CF
:105C700001211A680A431A60026811680123194257
:105C8000FBD1D1691942F8D17047036802211A6823
:105C90000A431A600268D3699907FCD47047036805
:105CA0001A7ED10702D41A7E9107FCD5704703688B
:105CB00000225A8370470368187E4007C00F704760
:105CC0000368187EC009704703688022197E52421B
:105CD0000A431A7670470368188DC0B2704703688C
:105CE0001A7E01200242FBD019857047036880228A
:105CF00019685968D2020A435A6070470368034A18
:105D0000196859680A405A607047C046FFFFFBFF98
:105D100030B5036803241D680C40074A5968240401
:105D20000A40ED0622436D0F5A60052D03D102682B
:105D3000D3695907FCD430BDFFFFFCFF036828334B
:105D40001970036800201A7E510703D55B8B012070
:105D50009B089843704703681868C006400F0438D2
:105D600043425841C0B270470368187E4007C00FD5
:105D700070470368187E0123184070470368588BEA
:105D8000C006C00F70470368187E8007C00F7047B9
:105D90000368588B0007C00F704703681A68D20663
:105DA000520F052A02D11A7E9107FCD528331878A4
:105DB000C0B270470368224A30B5934211D0214ADD
:105DC000934211D0204A934211D0204A934211D0DD
:105DD0001F4A934211D01F4A934230D10E231922F9
:105DE0000DE0092314220AE00A23152207E00B2301
:105DF000162204E00C23172201E00D231822DCB246
:105E0000154901209B08A0409B0008605B180320F7
:105E1000C021890004405D58E000FF248440A54370
:105E20002C1CC0258540281C204358508023DB01B2
:105E30001A430A4B5A805A7852B2002AFBDB30BD13
:105E400000080042000C0042001000420014004212
:105E500000180042001C004200E100E0000C00407D
:105E6000F8B5041C151C0E1C1F1CFFF7A3FF201CFB
:105E7000FFF7FDFEB1001C220A4069072368090CE8
:105E80000A431A60226884239375012E1AD10821CF
:105E9000012D00D110210C4B79431868C00000F08F
:105EA000FFFC236807219A890140D2044903D20CE0
:105EB0000A439A8123680004C20C9889400B40036E
:105EC00010439881F8BDC046DC00002001207047D7
:105ED00008B50368014ADB69984708BD1304000050
:105EE00010B5041C0069FFF7C2FE201C1430FFF738
:105EF0004CFE10BD08B50069FFF7D1FE08BD08B51E
:105F00001430FFF75DFE08BD08B51430FFF761FEE1
:105F100008BD08B51430FFF73FFE08BD08B500699D
:105F2000FFF7DDFE012008BDF7B51D1C08AB1B788F
:105F3000041C009309AB1B78161C019300234360DB
:105F4000FA239B008360094B0F1C08330360143055
:105F5000FFF7FCFD009A231CC03327619A70019A59
:105F60001E705D70201CDA70FEBDC04600AF0000E0
:105F700010B5041C0069FFF79EFE002807D02069B9
:105F8000FFF7A9FE011C201C1430FFF7ECFD20696F
:105F9000FFF796FE002805D02069FFF795FE2069DF
:105FA000FFF785FE10BDF023081C1840303843422F
:105FB00058417047F0231B01194080239B009942F0
:105FC0000CD0C0239B00994206D080235B000520A3
:105FD000994204D0002002E0072000E0062070472C
:105FE0000F231940012905D002394B424B410220B1
:105FF000C01A00E000207047F0B5031C85B0039183
:10600000C033041C182718783B1C43431B4E08213F
:10601000F3185956151C00F045FB231CC1331878A2
:1060200008214743F619715600F03CFB01210A1C78
:10603000039B2069FFF714FF291C201CFFF7BAFF00
:10604000291C071C201CFFF7CBFF291C061C201C49
:10605000FFF7A9FF391C0090331C20690122FFF7CC
:10606000D7FD231CC3331978013B1A782069FFF749
:10607000EBFD2069FFF709FE05B0F0BD34AA000072
:10608000FEE7000008B5034B1B68002B00D09847C3
:1060900008BDC046F00F002038B50F490F4CA14293
:1060A00004D100F079F800F053F80BE00C4D8D426C
:1060B000F7D00023CA18E818A24204D200680433BB
:1060C0001060F7E7FEE79042EBD0064B064A93429A
:1060D000E7D2002204C3F9E700000020800100207D
:1060E0006CB10000800100202010002008B500F0F5
:1060F0002CF8002801D100F01DF808BD014B1860F4
:106100007047C046F00F0020014B18687047C0462A
:10611000F40F002070B5041E08D0054B1D681E1C2E
:1061200000F012F833685B1BA342F9D370BDC04680
:10613000F40F002008B5034B1A6801321A60FFF70C
:10614000CBFC08BDF40F002070470020704770475B
:1061500010B500F0D5F803F0A7F8FFF7F8FF01201D
:10616000FFF7D8FF084C201CFEF776FD201CFEF739
:10617000EBFDFCF70DF8FCF76BF9044B002BFAD0A4
:1061800000E000BFF7E7C046DF0E0020000000007F
:1061900008B503F0AFF808BD70B5494A1E21536831
:1061A00002208B430343474953608B6908242343F0
:1061B0008B61454C454B9C829C8A20439882101CE5
:1061C000DA689407FCD5424A012414701478E50774
:1061D00004D53F4C647864B2002CF7DB0124946052
:1061E000547864B2002CFBDB3A4D394C656054782E
:1061F00064B2002CFBDB8225354CED0165805478C0
:1062000064B2002CFBDB02249C84DC68E606FCD52F
:10621000314D2E4CE562DD682C4CEE06FBD5A58C8D
:106220002E4E3543A584DD68284CEE06FBD5A58CA3
:1062300002263543A584DC682506FCD5234CE4689A
:106240006606F8D5DC68E506FCD500249460547831
:1062500064B2002CFBDB224D1D4C656055781C4C54
:106260006DB2002DFADB1E6A1E4D35401D621D6A9F
:106270008026B5431D620323A3601B4B63605378E4
:106280005BB2002BFBDB00230B72184A4B728B7244
:10629000CB72174BFF211A60164B174A1B68126806
:1062A0005C01D20E214011439A06520F12020B1CC0
:1062B0001343124A1385436880221343436070BD21
:1062C00000400041000400400C06000000080040AF
:1062D000000C004001050100B805FF7D040A000024
:1062E00000070300FFFCFFFF03060100006CDC0257
:1062F000DC0000202460800020608000004000421C
:10630000314BFA21186810B5890000F0C9FA2F4BFB
:106310000138984224D82E4A2E4B5060186AC0216A
:106320000002000A09060143196200240721946053
:106330001160196A80220902090A12060A431A62C8
:10634000254BFC211A6A0A431A62196AFC2292013F
:106350000A431A62196AA022D2020A431A6200E0B2
:10636000FEE7201C0021013400F012F9142CF8D1B2
:106370001A4C63785BB2002BFADB194B6380194B24
:106380005A7ED209012AFAD0E422D2009A803F2212
:10639000DA70597E134AC9090129FAD0C0235B017A
:1063A00000201361907000F053F863785BB2002B0B
:1063B000FBDB0D4A094B5A800C4BDA79D209012AD2
:1063C000FAD041225A7010BDDC000020FFFFFF0010
:1063D00010E000E000ED00E000040040000C004090
:1063E0001E400000004000422140000000480042E2
:1063F000914205D002D9891AC84001E0511A88405B
:10640000704700000F4B302118600F4A0F4B0A28CD
:1064100004DD9888884398800C210DE0082807DD6A
:1064200098888843011C2020014399800A2103E0B9
:10643000988801439980082111605A7ED209012A67
:10644000FBD07047E4000020E00000200040004244
:1064500000B5144A517E131CC9090129F9D001382D
:10646000042813D81969104A0A401A615A780F2172
:106470008A4300F001FA030509070300012102E045
:10648000032100E002210A435A700AE01169F02357
:106490001B050B43136153780F218B4302210B43E0
:1064A000537000BD00400042FFFFFFF010B5041E16
:1064B000062C05D0072805D0052804D80E3402E0A4
:1064C0002C2400E02D24201C012100F0EBF80E2CE0
:1064D0000CD12A4BDA79D209012AFAD01A78022192
:1064E0008A431A70DA79D209012AFBD0244B5A7EEA
:1064F000D209012AFAD018225443224A18691419E1
:10650000217C1F2290431140021C0A431A61597ECC
:106510001B4AC9090129FAD01178022001431170E0
:10652000597E174AC9090129FAD0117B022001437B
:10653000117301211176597E114AC9090129FAD036
:10654000117B0220014311731A7ED107FCD50C4A3E
:10655000508B80B2597E0A4AC9090129FAD01178B4
:106560000224A14311705A7ED209012AFBD0064BA6
:106570001968064B1A68FFF73BFF10BD0048004240
:106580000040004234AA0000E0000020E4000020A7
:1065900010B51824021C201C5043274B1818007AF1
:1065A00040B2013046D0032944D8081C211C00F019
:1065B00063F902331121624398569A18C3011F48A8
:1065C00052681B189918403102200870012191402F
:1065D00059602FE06243985618499A185268C301CF
:1065E0005B189918403106200870012191405960CC
:1065F00099611FE051435A56104859184B68D2010F
:106600001118C818403006240470012098404860D2
:106610000B49521850600DE0624398569A18C30116
:10662000064852681B189918403102200870012151
:106630009140996010BDC04634AA0000004400415A
:106640001044004118235843134AF0B51318082486
:106650001C5701341FD08256104ED2015D680124B0
:106660009019231C8668AB401E420BD10E1C771E6E
:10667000BE41401934404030A50004780426B4439C
:106680002C430470002903D105495218536002E0DD
:10669000024E92199361F0BD34AA000000440041FB
:1066A0001044004118224243F8B52D4D0824AA1881
:1066B0001457031C621C50D0481C00240C284CD8D2
:1066C00000F0DAF8071E1E1E1E1E1E1E1E0A0A0AF3
:1066D0000A000124644240E0092902D1181C00216B
:1066E00003E00A2904D1181C0221FFF751FF23E01F
:1066F00000240B2931D1181C0121FFF749FF2CE0A0
:1067000018225343EA185268EB560120141C044027
:106710005508DB01002C11D0124C1B195D193035C6
:106720002E780C010F21314021439A18C9B22970EB
:10673000403213781843107000240EE0094E0F27E2
:106740009B195D1930352E789A18BE433143C9B272
:1067500029704032137818431070201CF8BDC046D1
:1067600034AA00000044004170B544680E1C0025A6
:10677000002C09D02368201C5B68311C9847002836
:1067800004DB2D18E468F3E7281C01E001204042F7
:1067900070BD38B544680D1C002C08D02368201C3F
:1067A0009B68291C9847002802D1E468F4E7201C64
:1067B00038BD38B544680D1C002C07D02368201C58
:1067C000291CDB689847E4682D18F5E72C7038BD64
:1067D00038B544680D1C002C08D02368201C1B68A9
:1067E000291C9847002803D1E468F4E7201C00E046
:1067F000012038BD064B0122196810B5114005482B
:1068000005D1022404700424447041601A6010BD54
:1068100000100020F80F00200B1C011C021C30B5DA
:1068200019430220002900D130BD802109068B4286
:1068300016D00D4904205C180C498C42F4D90C4D3B
:106840005C198C42F0D90B4C590049080320A14235
:10685000EAD9074C0020A142E6D150425041E3E77B
:10686000002AE1D0EFE7C0460000F0FFFFFFDF7F26
:106870000000F07FFFFF0F0002B471464908490095
:10688000095C49008E4402BC7047C04603B471469F
:10689000490840004900095A49008E4403BC70472A
:1068A000002934D00123002210B488422CD30124C3
:1068B0002407A14204D2814202D209011B01F8E758
:1068C000E400A14204D2814202D249005B00F8E711
:1068D000884201D3401A1A434C08A04202D3001B3D
:1068E0005C0822438C08A04202D3001B9C08224370
:1068F000CC08A04202D3001BDC082243002803D0AE
:106900001B0901D00909E3E7101C10BC70470028DF
:1069100001D00020C04307B4024802A140180290F1
:1069200003BDC046D90000000029F0D003B5FFF731
:10693000B9FF0EBC4243891A1847C046002941D00E
:1069400010B4041C4C40A44601230022002900D5A9
:106950004942002800D5404288422CD30124240714
:10696000A14204D2814202D209011B01F8E7E400EE
:10697000A14204D2814202D249005B00F8E788427A
:1069800001D3401A1A434C08A04202D3001B5C08F2
:1069900022438C08A04202D3001B9C082243CC084F
:1069A000A04202D3001BDC082243002803D01B09AD
:1069B00001D00909E3E7101C6446002C00D54042D1
:1069C00010BC7047002806D003DB0020C0434008FD
:1069D00001E08020000607B4024802A1401802909E
:1069E00003BDC046190000000029EBD003B5FFF736
:1069F000A7FF0EBC4243891A1847C0467047C046DD
:106A00008446101C62468C46191C634600E0C04652
:106A10001FB501F0A7FC002801D40021C8421FBD0A
:106A200010B501F0D7FB4042013010BD10B501F0A8
:106A300099FC002801DB002010BD012010BDC046DC
:106A400010B501F08FFC002801DD002010BD0120F1
:106A500010BDC04610B501F007FC002801DC002085
:106A600010BD012010BDC04610B501F0FDFB00288F
:106A700001DA002010BD012010BDC0468446081C6C
:106A80006146FFE71FB500F003FA002801D400219A
:106A9000C8421FBD10B500F089F94042013010BD59
:106AA00010B500F0F5F9002801DB002010BD012031
:106AB00010BDC04610B500F0EBF9002801DD002044
:106AC00010BD012010BDC04610B500F099F9002896
:106AD00001DC002010BD012010BDC04610B500F043
:106AE0008FF9002801DA002010BD012010BDC0463A
:106AF0009E2110B5C905041CFFF7F0FF002803D143
:106B0000201C00F0ABFC10BD9E21C905201C00F02C
:106B100035FB00F0A3FC80231B06C018F3E7C0463A
:106B200038B50E4B0C4A041C0D1CFFF79DFF0028C6
:106B300004D1201C291C02F04DFA38BD074B064A2F
:106B4000201C291C01F01CFF02F044FA80231B06C4
:106B5000C018F2E7C046C046000000000000E04157
:106B6000F0B55F4656464D464446F0B446024500F1
:106B7000C00F85B00F1C760A2D0E804641D0FF2D28
:106B800026D08024240400212643F6007F3D894638
:106B90008B46F90F7C027800640A000E00918A4649
:106BA0003CD0FF2834D080231B041C430023E40086
:106BB0007F380193009F4346019A7B4049469C469B
:106BC00011430F2900D971E0764F89007F58BF46E5
:106BD000002E3ED10822022391469B46D9E75A4611
:106BE000341CC24601920199022937D0032900D1F1
:106BF000CFE0012900D0ABE053460B400022002635
:106C000032E0002E19D10421012289469346C0E7C3
:106C1000221C531E9A4102320192CBE701270197B1
:106C2000002CC7D0201C02F01BFB431F9C40762386
:106C30005B420021181A0191BCE7301C02F010FBE6
:106C40007625431F9E406D4200232D1A99469B4690
:106C50009FE70C23032199468B469AE7D4460123EC
:106C600067463B40FF2200267602D205700ADB070A
:106C70001043184305B03CBC90469946A246AB462B
:106C8000F0BD80260023F603FF22EDE70022002658
:106C9000EAE78020C00306423BD0044239D1061CFB
:106CA00026437602760A009BFF22DDE7281A03902E
:106CB00076016401A64239D3361B1A220123012032
:106CC000311C5B007600002901DBB44201D8361B81
:106CD0000343013A002AF3DC741EA641341C1C4312
:106CE000039A7F32002A27DD630704D00F23234055
:106CF000042B00D00434270103D52B4B039A1C40EE
:106D00008032FE2A0BDD012361460B40FF22002664
:106D1000AAE706437602760A4346FF22A4E7A401C7
:106D200001236746660AD2B23B409DE7039F1B22C0
:106D3000013F03970023C2E77E23039F5B42DB1BD7
:106D40001B2B07DD012361460B40002200268BE749
:106D5000D446C5E7221CDA40039B9E339C40231C8B
:106D60005C1EA34113435A0704D00F221A40042A81
:106D700000D004335F0105D5012361460B40012299
:106D8000002671E79E01624601231340760A002225
:106D90006AE78026F60326437602760A5346FF22E8
:106DA00062E7C04630AF0000FFFFFFF74A02430230
:106DB00070B55C0A550A43004A001B0EC60F120E3E
:106DC000C90FFF2B05D0FF2A08D0012093420BD01A
:106DD00070BD0120002CFBD1FF2AF6D10120002D2F
:106DE000F6D101209342F3D1AC42F1D18E4205D0CD
:106DF000002BEDD1201C441EA041E9E70020E7E76D
:106E00004A024302F0B55C0A550A43004A001B0ED1
:106E1000C60F120EC90FFF2B31D0FF2A34D0002B22
:106E200016D1604260418446002A14D0002820D147
:106E30008E4217D1934215DC04DBAC4212D80020FD
:106E4000AC4212D2704270414042012318430CE020
:106E5000002AEDD194466F426F416046002805D16B
:106E6000002FE5D0704201231843F0BD0020002F11
:106E7000FBD148424841404201231843F5E7002C2A
:106E8000CBD002204042F0E7002DC8D0F9E7C04641
:106E90004A024302F0B55C0A550A43004A001B0E41
:106EA000C60F120EC90FFF2B27D0FF2A29D0002BA7
:106EB00010D0002A15D194466F426F4160460028D9
:106EC00015D00020002F04D1484248414042012300
:106ED0001843F0BD604260418446002AECD000288F
:106EE000F2D18E4211D0704201231843F1E7002FF6
:106EF000F7D0704201231843EBE70220002CE8D1C1
:106F0000D3E70220002DE4D1D1E79342EBDC04DB90
:106F1000AC42E8D80020AC42DBD270427041404223
:106F200001231843D5E7C046F0B55F4656464D46A7
:106F30004446F0B44402460083B00F1C640A360E87
:106F4000C50F002E41D0FF2E22D080231B0400202D
:106F50001C43E4007F3E82468046391C4B007F0282
:106F6000C90F7F0A1B0E8B463BD0FF2B34D08022EB
:106F700012041743FF007F3B00215A466A400192EA
:106F800052460A430F2A63D87A489200825897469D
:106F9000002C3FD10822022392469846DDE7019556
:106FA000404602282AD1019A01251540FF230024DA
:106FB0006402DB05600AED071843284303B03CBCBC
:106FC00090469946A246AB46F0BD002C27D104203E
:106FD000012282469046C0E7391C4A1E9141023187
:106FE000CBE70121002FC8D0381C02F039F9431F2C
:106FF0009F4076235B421B1A0021BEE7032800D185
:10700000AEE001284FD1019842461040C5B200239E
:107010000024CDE70C2303209A4680469DE7201CE0
:1070200002F01EF97626431F9C4076420023361A52
:107030009A46984691E780240025E403FF23B7E7AA
:107040005B463C1C01938846AAE73C1C8846A7E7A0
:10705000250C24043A0C240C3F04F6183F0C211C88
:10706000231C794353436F435543FB180A0C9B1869
:10707000B1469F4202D980225202AD1809041A0477
:10708000090C521894011B0C611E8C41920EED18D4
:107090001443AD012C43230105D5012263080120CF
:1070A000144081441C434B467F33002B2DDD600789
:1070B00004D00F222240042A00D00434220103D538
:1070C0002D4B1C404B468033FE2B17DD019B0125C9
:1070D0001D400024FF236BE78020C003044208D03A
:1070E000074206D1041C3C436402640A5D46FF2348
:1070F0005EE704436402640AFF2359E70198A40190
:107100000125640ADBB2054052E77E235B424A4612
:107110009B1A1B2B05DD019B01251D40002400232C
:1071200046E7221CDA404B469E339C40231C5C1EE3
:10713000A3411343580704D00F221A40042A00D059
:1071400004335A0105D5019B01251D40002401236C
:107150002EE701989C010125640A0540002327E7DA
:107160008027FF03019B3C43640201251D40640A04
:10717000FF231DE770AF0000FFFFFFF7F8B5C20F58
:10718000430244004D024800240E161C9B09000EC9
:10719000C90FAD09FF2800D17EE0012779408A425E
:1071A00058D0221A002A00DC89E000281BD1002DCB
:1071B00000D075E0580704D00F221A40042A00D0EE
:1071C0000433590138D50134FF2C00D183E09B01F1
:1071D00001225B0AE0B232405B02C405580AD207C2
:1071E00020431043F8BDFF2CE4D08021C9040D4397
:1071F0001B2A00DD2DE1291C2020D140821A954058
:107200006A1E95410D435B1B5801D3D59B019F0915
:10721000381C02F025F8421F9740944260DC141B92
:107220001F231B1B3A1C9F40611C3B1CCA405F1E56
:10723000BB4113430024BDE70122DB08E0B232402A
:10724000FF2C04D1002B7ED08021C9030B435B02AD
:107250005B0AC1E7211A002946DD002826D0FF2C51
:10726000A8D08020C00405431B2900DDEFE0281CC6
:107270002027C840791A8D40691E8D4105435B194E
:10728000590197D50134FF2C5CD0734901221A4073
:107290000B405B0813438DE7002D00D07FE77CE7B0
:1072A000013A002AAFD0FF2CA2D183E7002D00D1F4
:1072B00080E701390029E2D0FF2CD5D17AE7002AF6
:1072C0001ED1621CD2B2012A4EDD5F1B7A0126D587
:1072D000EF1A0E1C9CE701223240FF2000237BE7BF
:1072E0005D4BA41A3B4065E7002946D1611CC8B23A
:1072F00001282ADDFF2925D0EB185B080C1C59E773
:10730000002C13D0FF2818D08024E40452422343D9
:107310001B2A4DDD0123EB1A041C0E1C74E7002F01
:1073200000D075E700220020002390E7002B3BD01F
:10733000D243002AEFD0FF28EAD12B1CFF240E1CD9
:1073400038E70022FF20002346E7002C5AD1002B0B
:1073500077D0002D00D12DE75B19580100D429E723
:107360003D4A0124134025E7002C15D1002B2FD1D5
:10737000002DD7D02B1C0E1C1CE7002C21D1002B7C
:1073800053D0C943002904D0FF284BD01B294FDD1F
:1073900001235B19041C73E7002B22D1002DD0D0F0
:1073A0002B1C0E1CFF2405E72B1C041C0E1C01E7E4
:1073B0001C1C2026D440B21A93405A1E93412343EA
:1073C000A9E7FF282ED08024E40449422343DDE7C7
:1073D000002D00D1EEE65A1B500134D5EB1A0E1CDD
:1073E000E8E6FF24002D00D1E4E68022DB08D2038A
:1073F000134204D0ED08154201D12B1C0E1CDB00FA
:10740000FF24D7E6002B0DD0FF24002D00D1D1E6BC
:107410008022DB08D2031342F1D0ED081542EED1F1
:107420002B1CECE72B1CFF24C4E62B1C041CC1E620
:107430001C1C2027CC40791A8B40591E8B412343BA
:10744000A7E72B1CB6E6131E00D0B3E66AE70125BA
:1074500015E70125D7E6C046FFFFFFFB4302590AA7
:107460004300C20F1B0E00207E2B0DDD9D2B0CDC7C
:10747000802000040143952B0ADC9620C31AD940D2
:107480004842002A00D1081C7047034BD018FBE784
:10749000963B9940F4E7C046FFFFFF7F70B5041E9E
:1074A0003CD0C60F00D04442201C01F0D9FE9E23E0
:1074B000251C1B1A962B0CDC083884406402640AD5
:1074C000DBB2321C6402DB05600AD20718431043AA
:1074D00070BD992B0ADD0522121A211CD1400A1C0D
:1074E000011C1B318D40691E8D411543052801DDAE
:1074F000421F9540164C2C406A0704D00F221540BD
:10750000042D00D0043461010CD59F23181AFF28E4
:107510001AD0A401640AC3B2321CD3E700220023AC
:107520000024CFE7E408FF2B04D06402640ADBB236
:10753000321CC7E7002C04D08020C003044364023F
:10754000640A321CFF23BDE7321CFF230024B9E785
:10755000FFFFFFFBF8B55F46564644464D46F0B484
:107560000C034D00CE0F610A440F2143C4001803E1
:1075700080465800400D8246D80F84464046400A57
:10758000530F0343D0006D0D371C834652466645AA
:1075900000D19DE0AF1A002F00DC03E1002A38D1B2
:1075A000184300D0E4E0630709D00F232340042BE5
:1075B00005D0231DA342A441644209191C1C0802E2
:1075C00000D478E0CE4B6A1C9A4200D105E1CD4B45
:1075D000E408194048075205490204430B0B520DB9
:1075E000371C002000211B03201C1C0B0B0D1B054E
:1075F000C54D2343520552081D4015436D006D08CB
:10760000FF07291C39433CBC90469946A246AB462D
:10761000F8BDBB488542C6D0802000040343382F04
:1076200000DDECE01F2F00DD20E12020C01B1A1C34
:10763000814682405846F8400243944658464A469E
:107640009040421E9041FB40624602431F1CA21A1A
:107650009442A4416442C91B091B141C0B02A2D50D
:1076600049024F0A002F00D1C4E0381C01F0F8FD98
:10767000021C083A1F2A00DDB7E02821091A201C45
:107680009740C84007439440954200DDA9E0551B50
:10769000691C1F2900DDD8E01F22551B3B1C221C42
:1076A000AB40CA40AC40651EAC411343CF401C43C5
:1076B000391C002577E74807E4086A05C908520D18
:1076C000371C04438E4B9D4248D009030B0B88E7BF
:1076D000AA1A9446002A00DC98E05046002853D0AD
:1076E0008748854200D15EE780200004034362465C
:1076F000382A00DDFDE01F2A00DD4BE12022604634
:10770000101A1A1C82408246914658466246D04062
:107710004A4602439046584652469040421E904187
:10772000424602436046C3401219A242A441644249
:1077300059180919141C080200D434E7704B01359C
:107740009D4200D124E16F4B600819400123234082
:107750001C1C0443CB071C43490824E70B1C234390
:1077600000D1C7E180231B030B431B031B0B38E72E
:10777000013F002F64D15846221A9442A44164422A
:10778000C91A091B141C69E75846184300D10AE7B7
:107790000122524294446046002800D0C5E0584679
:1077A0000219C2E7002F72D1681C4005400D012864
:1077B00000DCDEE05A46A21A9442BF41C81A7F425A
:1077C000C71B380200D488E05A46141BA3459241D7
:1077D000591A52428F1A664644E7371C0023002488
:1077E000FFE64849AD1A3940DDE6271C28388740B6
:1077F000002449E7201C01F033FD203038E75A46C9
:107800001A43531E9A41D2B2002720E7002A00D023
:10781000DDE0681C4205520D012A00DC8EE0384D87
:10782000A84200D1B3E05D462A19A242A4416442B5
:1078300059180919CC07520814434908051CB2E627
:107840002F48854200D0EAE6ADE62B1C1F3B3A1CD0
:10785000DA40131C20296DD03F22551BAF403C431A
:10786000601E84411C43002100259CE6381C203802
:107870001A1CC240101C202F5ED04022D71BBB40D8
:107880005A461A43531E9A4102430027DFE6002D51
:107890003CD01B4DAA4500D194E080252D047F42A9
:1078A0002943382F00DDADE01F2F00DD2CE120251E
:1078B000ED1B081C261CA840FE40AC400643651E7C
:1078C000AC413443F9405D462C1BA34592415B1A01
:1078D0005242991A55466646C0E6131C3B43141C97
:1078E000002B00D0BEE60027002200250021002446
:1078F000E8E65A461A43531E9A41D2B2002313E7D0
:10790000FF070000FFFF7FFFFFFF0F800D1C2543D7
:1079100058D0FF43002F51D1041BA3459241591A5F
:107920005242891A5546664698E69648854200D0E6
:10793000DDE638E6002792E70023A1E7081C204394
:10794000002D00D0C0E0002800D1FBE058461843CD
:1079500000D128E658460219A242A44164425918AF
:107960000919141C0A0200D41DE6874B0125194091
:1079700019E6081C2043002D39D100286DD1594645
:10798000194300D1BDE0191C5C4666460BE6051C98
:107990002A1CABE7604620381A1CC240604691465C
:1079A000202800D1ABE04022121A93405A461A43D5
:1079B000531E9A414B461A430023B5E6714DAA4522
:1079C00000D06EE7191C5C4655466646EBE5002D77
:1079D0001ED10D1C254373D0D543002D6DD15C44C1
:1079E0005C4592415918524289185546A3E6002831
:1079F00049D15946194300D196E0191C5C466646A8
:107A0000604DD0E50C43611E8C41E4B200215AE781
:107A10005C4DAA4554D05542802210040143382DB4
:107A200000DD85E01F2D00DD95E02022501B0A1CA3
:107A300084468240201CE8400243904662469440BF
:107A4000601E844142461443E9405C445C459241D7
:107A5000CB185242991855466DE65846184300D146
:107A6000A1E55846271ABC429241C81A5242801AD0
:107A700002026AD55846041BA3459241591A524244
:107A8000891A66468FE55846184336D04807E408F9
:107A900004438020C9080003014208D0DD080542E4
:107AA00005D15946CA085C071443291C6646630F72
:107AB000C9001943E400334D75E5324A9245AED111
:107AC000191C5C4655466EE5002837D058461843C9
:107AD00013D080254807E408C9082D030443294230
