:1020000000800020455900002D5900002D59000086
:1020100000000000000000000000000000000000C0
:102020000000000000000000000000002D5900002A
:1020300000000000000000002D5900009959000028
:102040002D5900002D590000893300007929000026
:102050002D5900002D5900002D5900003159000064
:102060002D590000A54000002D5900002D590000F9
:10207000492900002D590000B54000002D590000ED
:102080002D5900002D590000854000008F400000B0
:10209000994000002D5900002D5900002D590000D5
:1020A0002D5900002D5900002D5900002D59000018
:1020B0000000000010B5064C2378002B07D1054B1B
:1020C000002B02D0044800E000BF0123237010BDA4
:1020D000A001002000000000B09D000008B5084BE2
:1020E000002B03D00748084900E000BF07480368F9
:1020F000002B03D0064B002B00D0984708BDC046EC
:1021000000000000B09D0000A40100209C01002000
:102110000000000070470000F0B5C54E85B034786F
:10212000012C2DD0002C02D0022C3ED06BE1C148F6
:1021300001F01EF9C04BC14F1978381C01F0A8FA04
:10214000BF4DC0492870C04803F090F8287801F0CE
:1021500009FA211C381C01F0F3FA287001F002FA88
:10216000211C381C01F0E2FC287001F0FBF9B74992
:10217000381C01F079FC287001F0F4F901230DE01E
:10218000AC4801F0F5F8AD4801F02CFBAC4D2870DF
:1021900001F0E8F92B78002B02D10223337032E1F1
:1021A000AB4803F00DFC34702DE1AA4E0024301C26
:1021B00001F090F8301C1C3001F08CF8301C3830E5
:1021C00001F088F8FA20400003F0FAFBA24F012149
:1021D0000F203C7003F08CFEFA20400003F0F0FB6F
:1021E000132003F0B9FD211C051C0F2003F080FE15
:1021F000281C04F011FD994904F054FA9849041C74
:1022000004F07AFB05F034FE824B814A05F07CF83D
:10221000814A824B05F09CFB814A824B04F058FDB9
:1022200005F078FE0021051C04F022F800280BD1EF
:102230008C49281C04F030F8FE21002805D1281C08
:1022400004F034F8C1B200E001217C4E301C01F0F2
:1022500039FA7B4D287001F085F9201C824904F081
:102260003DF8824904F01EFA0021041C04F000F835
:1022700000280BD1201C7D4904F00EF8FF22002815
:1022800005D1201C04F012F8C2B200E00022694619
:102290000A7001A8764905F0EBFF381C01A906F089
:1022A00009F8744B6B4F1D1C44352C1C3C3CA37827
:1022B000002B10D0211C0839381C01F039F8211CE2
:1022C00020800222684605F014FF6B461A7801A8A8
:1022D0005B78694905E069460B704B70664901A857
:1022E0001A1C05F0C5FF0C345B4801A905F0E2FF9C
:1022F000AC42DCD1251C614A3C351C379542D4D117
:102300005F4B554A1978301C01F0D6FA4C4C2070BE
:1023100001F028F92478474D002C25D1594BF35C66
:10232000002B29D0584B211CF018102206F0E6F89B
:1023300072280CD101210C2003F0DAFDFA20C00034
:1023400003F03EFB0C20211C03F0D2FD14E06128B9
:1023500012D1FA21281C8900221C01F051F8FA2020
:10236000C00003F02DFB07E00122062C02D0022C56
:1023700002D100222E4B1A700121082003F0B8FD73
:102380009620400003F01CFB0021082003F0B0FD64
:10239000254A264B301C01F009FC2949087001F040
:1023A000E1F83A4C201C00F017FB3C21033003F00D
:1023B00037FF201CC9B200F0AFFB201C022100F047
:1023C000E9FA201C324900F0F7FA0021082003F056
:1023D0008FFD281C00F0CCFF201C00F0F3FAFA213E
:1023E00089010022281C01F00BF8301C01F018FCB8
:1023F000134A107001F0B6F8301C01F0F1F8104BE0
:10240000187001F0AFF805B0F0BDC046C046C04638
:10241000333333333333F33F0000000000C06F40E9
:10242000000000000000F03F80841E00000000005B
:10243000C4020020840400207F00002088040020C3
:10244000C6020020C08B0000540A0020CF8B000081
:102450001027000070020020000000200000B03AA9
:102460000000404000007E430000204100007F4308
:10247000D68B0000BC010020D28B0000B4020020EB
:102480008000002022040000BD030000C5020020DF
:1024900015210000C046C04670B5061C0024335DFF
:1024A000074D0F2B03D8281C064902F0DFFE315DD3
:1024B000281C1022013402F052FF082CEFD170BD0D
:1024C000540A002030920000F0B5002487B0201C90
:1024D0000221013403F0B2FC0B2CF8D120200221A0
:1024E00003F0ACFC2120022103F0A8FC2324201CD3
:1024F0000221013403F0A2FC2A2CF8D11920022178
:1025000003F09CFC1A20022103F098FC0820012112
:1025100003F094FC0820002103F0EAFC09200021CC
:1025200003F08CFC0920012103F088FC0920012123
:1025300003F0DEFC0F20012103F080FC0F200021BE
:1025400003F0D6FC0021132003F078FC0C2003F0EC
:10255000AFFB0C20002103F0CBFC0C20012103F089
:102560006DFC624C9621201C890101F089FE01213D
:10257000082003F0BDFC5E4803F022FA0820002189
:1025800003F0B6FC5B49201C02F082FE5A4D002687
:10259000281C1C3000F0D5FD281C383000F0D1FD7F
:1025A0005649201C02F062FE201C554902F070FEC4
:1025B0004E4C5449201C02F059FE311C4131201C64
:1025C000C9B202F06FFE3C2373434F4A0027D21872
:1025D0002823734300924D4A009CD2181C23734356
:1025E0000392454AD2180192039BF9005918082218
:1025F000201C05F07EFD3D4D00232381A37244493C
:102600000137281C02F032FE0A22391C281C02F075
:1026100098FE4049281C02F029FE201CFFF73CFFD1
:102620003D49281C02F022FE211C082204A805F0C6
:1026300060FD7A1ED2B2019804A900F0BBFC0290A2
:10264000002814D03549281C02F022FE0198211CD4
:102650000C22002300F0B1FD002802D0281C3049D4
:1026600001E03049281C02F013FE012304E0281C7D
:102670002D4902F00DFE029BA3720C34052FB3D13D
:1026800000242A49281C02F0F1FD009B1819FFF7CD
:1026900003FF274F281C391C0C3402F0F9FD3C2C99
:1026A000EFD1281C391C013602F0F2FD032E00D0B8
:1026B0007EE72049281C02F0EBFD281C01F0E1FD1B
:1026C0001D4802F0BBF81D4C0021201C00F086FACA
:1026D0000022201C131C0A2100F0C0F9201C142128
:1026E0000222112300F006FA07B0F0BD540A0020C0
:1026F00010270000DB8B000070020020E18B00003F
:10270000E88B0000F28B0000BC01002007000020D5
:10271000F78B0000CC8B00007E9C0000FE8B00003D
:10272000018C0000068C00000C8C0000108C000056
:1027300035920000178C00001F0F0020C5020020FA
:10274000F8B5114800F014F9104F0B21381C00F0B7
:102750005DFB0F4E1221301C00F058FB0D4D032184
:10276000281C00F053FB0C4C391C201C00F00EFC04
:10277000201C311C1C3000F009FC201C291C3830A6
:1027800000F004FCF8BDC046C5020020C8020020CD
:10279000DC020020F002002070020020F8B5051CC9
:1027A0000F1C161C0024B44208D02B68395D1B682E
:1027B000281C9847002801D00134F4E7201CF8BDFC
:1027C000704708B5183002F03DFE08BD08B5183056
:1027D00002F04CFE08BD38B5837D0D1C002B06D0E1
:1027E000041CC434201C02F057FE002801D0002035
:1027F00004E0201C291C02F00CFE012038BD08B5A5
:10280000183002F03CFE08BDF7B50193FA239B0097
:1028100083600B4B00250833041C456003601830AF
:102820000F1C161C02F0E8FD201CC43002F0E4FD71
:10283000019B27612675A575201C6375FEBDC046EA
:10284000288C000038B5041C006902F0DAFE00286C
:1028500079D0206902F0E3FE00280ED1206902F051
:10286000E8FE00281FD0206902F0DEFE00281AD002
:10287000206902F0E3FE002815D1206902F094FEE1
:102880002069032102F09AFE231CFC33DD6F002D2A
:1028900004D02368201C9B689847A847201C183048
:1028A00002F0C9FD4FE0206902F0C3FE031C20695D
:1028B000002B16D002F078FE2069032102F07EFE84
:1028C000206902F0BBFE00283DD0201CC43002F07D
:1028D000B2FD0123A375FC34A36F002B33D09847BE
:1028E00031E002F097FE00282DD0206902F0A6FE0C
:1028F000251C00280FD0C435281C02F0B7FDFF218D
:10290000002803D0281C02F09DFDC1B2206902F00E
:102910006BFEA07517E01835281C02F0BDFD031CE6
:102920002069002B02D002F037FE08E002F08BFE97
:10293000011C281C02F06DFD206902F035FE2069A3
:10294000032102F03BFE38BD08B50248FFF77AFFCD
:1029500008BDC0460403002008B5034803491422FB
:102960001523FFF751FF08BD040300203C0A002097
:10297000002303707047000008B5044B1B68002B50
:1029800000D09847024B01221A7208BD8004002033
:10299000001400400378002B0AD0064B081C197F56
:1029A000072210409143014319779A7AD209FCD14A
:1029B0007047C04600140040014B19607047C04684
:1029C00080040020034B04211A690A431A6130BFB6
:1029D0007047C04600ED00E0024B98690005800E8C
:1029E0007047C046001400400378002B0AD0064B05
:1029F000081C19693F2210409143014319619A7ADA
:102A0000D209FCD17047C046001400400378002B67
:102A10000BD0064B3F2211408A011869044901403E
:102A2000114319619A7AD209FCD170470014004011
:102A30003FF0FFFF0378002B0BD0064B1F22114005
:102A40000A03186904490140114319619A7AD209AD
:102A5000FCD1704700140040FF0FFEFF70B5161C3C
:102A60000278041C0D1C002A0AD0191CFFF7BCFFB9
:102A7000201C311CFFF7CAFF201C291CFFF7DAFFBE
:102A800070BD00000378002B0BD0064B1F221140B5
:102A90004A04186904490140114319619A7AD2091C
:102AA000FCD1704700140040FFFFC1FF0378002BEA
:102AB0000BD0064B0F2211408A05186904490140CA
:102AC000114319619A7AD209FCD170470014004071
:102AD000FFFF3FFC0378002B09D0054B8A061969DC
:102AE00089018909114319619A7AD209FCD1704789
:102AF0000014004070B51D1C0378041C161C002B2C
:102B000009D0FFF7BFFF201C311CFFF7CFFF201CAF
:102B1000291CFFF7DFFF70BD0378002B0BD0064B9D
:102B20003F2211408A01986904490140114399618B
:102B30009A7AD209FCD17047001400403FF0FFFFA1
:102B40000A4B0B4A9A605A7852B2002AFBDB0949B9
:102B5000064A51605A7852B2002AFBDB0649034A02
:102B600051805A78D209FCD17047C046000C004011
:102B7000020400000205110004420000044B02217F
:102B80001A888A431A809A7AD209FCD17047C046C3
:102B900000140040044B02211A880A431A809A7AD2
:102BA000D209FCD17047C04600140040044B0121FB
:102BB0001A880A431A809A7AD209FCD17047C04613
:102BC00000140040044B01211A888A431A809A7A23
:102BD000D209FCD17047C04600140040F7B52B4B1A
:102BE0000F1C9A6920210A439A61294A294B002621
:102BF000051C9A82284CB7420AD1284B1A787023B8
:102C00001A4240D023881A073DD522690126019235
:102C1000281CFFF795FF281CFFF7B0FF281CFFF7C3
:102C2000C5FF62881E4B134063801E4B2380A27A2F
:102C3000194BD209FBD11C4A08211160C02189001F
:102C400050580002000A5050DA7901210A43DA7123
:102C50001A7F07218A431A77A37ADB09FCD1281C43
:102C6000FFF798FF281CFFF7ADFF002F02D00123CC
:102C70002B70F7BD002EFAD0074B019A1A61A37A88
:102C8000DB09FCD1F3E73E1CC2E7C046000400406C
:102C9000CE06000000080040001400403804004048
:102CA000FFBFFFFF080A000000E100E00368426880
:102CB00072B6536062B67D200138C0B200281DD0C4
:102CC00020210139FDD1116A0B42F5D072B6536152
:102CD000936062B6F02149010139FDD172B68C21B1
:102CE0005360C9000139FDD1106A03405842584170
:102CF000C0B262B6CD225201013AFDD170470CC874
:102D0000C8070AD572B6A0215A619A600139FDD16F
:102D10009A6162B6DC239B0009E072B682215A6197
:102D2000C9009A600139FDD19A6162B65023013B16
:102D3000FDD170470368426872B6302193605361D9
:102D40000139FDD1A02153600139FDD1106A62B66D
:102D5000D4229200013AFDD10340581E8341D8B2DB
:102D60007047F7B5041C0F1C019208250126391C79
:102D700031404B1E9941C9B2201C7600013DFFF73E
:102D8000BEFFF6B2002DF2D1019A002A06D172B62A
:102D9000226863685A6022685A6162B6F7BDF8B566
:102DA000071C082500240126381CFFF7C3FF002854
:102DB00000D034437600013DF6B2002DF4D1201C42
:102DC000F8BD70B500220E1C5521051CFFF7C9FF88
:102DD0000024315D281C00220134FFF7C2FF082CBB
:102DE000F7D170BD08B5CC210022FFF7BAFF08BDAE
:102DF00000230374837443740723C21800211172E3
:102E00008B4201D0013BF8E77047000038B5041C45
:102E10000D1C081C002103F011F818225543084B23
:102E200001215A195268EB569140064ADB019B1862
:102E3000201C21606360FFF7DBFF201C38BDC0460B
:102E40008096000000440041F0B585B00391867C77
:102E5000041C151C002E5AD1FFF728FF002857D05C
:102E6000201C002D02D0F021321C01E0EC212A1C94
:102E7000FFF777FF0126002101910291351C201CEC
:102E8000FFF758FF071C201CFFF754FF012F02D14A
:102E9000012816D132E0019AA318874219D1277C64
:102EA000BD4204D21F7A37407A1E974102E0EF1BE1
:102EB0007A425741FFB2002F03D1082D08D865741C
:102EC00006E00199012763181A7A32431A7203E067
:102ED00002951A7AB2431A727600201C391C013509
:102EE000F6B2FFF70CFFEDB2002E04D1019B0126D4
:102EF0000133DBB20193019A072AC0D9402D06D9CC
:102F0000029B2374002B07D10123A37404E000204B
:102F10002074A07460740BE0237A002BF7D0002398
:102F2000E218127A0399CA540133082BF8D1012010
:102F300005B0F0BD031C00200139C9B2FF2905D03E
:102F40001A7801335040024A105CF5E77047C046DA
:102F5000488C00000B78282B09D004D8102B06D001
:102F6000222B06D103E03B2B01D0422B01D10120C3
:102F700000E00020704700230371437103700923B0
:102F80004370012381608370C370704710B5041CC7
:102F9000FFF7F1FF0023201CA36110BD10B5081C32
:102FA0000C1C0721FFF7C6FFE379181A434258416A
:102FB000C0B210BDF8B5051C80680E1C171CFFF7C9
:102FC00017FF0024A868311C0122FFF73DFF0028ED
:102FD0000BD0BC4205D1281C311CFFF7DFFF0028B5
:102FE00004D10134E4B2BC42ECD90020F8BDF8B5FC
:102FF000041C80680F1C161CFFF758FE0025A84211
:1030000016D0A068391CFFF7DCFEA068BE212A1C80
:10301000FFF7A7FEA068FFF7C2FE70550135092D26
:10302000F8D1A068FFF742FE451E6B425D41EDB24C
:10303000281CF8BD10B5141CFFF7D9FF031C002095
:10304000834208D0201C0821FFF774FF237A181A46
:1030500043425841C0B210BD70B5041C0D1C8068BD
:10306000161CFFF723FEA068291CFFF7AAFEA06824
:103070004E210022FFF775FEB178A0680022FFF70D
:1030800070FEF178A0680022FFF76BFE2B78102B02
:1030900004D03179A0680022FFF763FEA068FFF733
:1030A00005FEA068291CFFF78CFE2278A068482145
:1030B000FFF757FE142002F083FC2378002B02D088
:1030C0000A2002F07DFCA068FFF7F0FD70BD38B566
:1030D000041C0D1C8068FFF7E9FDA068291CFFF7A0
:1030E00070FEB4210022A068FFF73BFEA068FFF746
:1030F00021FE051CA068FFF7D9FD68426841C0B2F7
:1031000038BD1FB50A780C23102A17D001AC221C39
:10311000FFF790FF0023984210D022793F2A0CD06D
:1031200003D809231F2A09D005E00B235F2A05D005
:103130000C237F2A02D0002300E00A23181C04B0CD
:1031400010BD37B5041C8068FFF752FE00232371C1
:103150006371A06869460122FFF776FE00282BD034
:10316000201C6946FFF71AFF0028F2D02378002BB5
:1031700005D1201C6946FFF7AAFF002819D1201CA1
:1031800069466578FFF7BDFF854201D9607803E0A5
:10319000201C6946FFF7B5FF237960700133237166
:1031A000201C6946FFF7D6FE0028D2D06379013390
:1031B000CEE701232370E2E737BDF0B589B0041CE8
:1031C0000F1C01930925082A04D9151C0C2A00D9C3
:1031D0000C25EDB2201C391CFFF793FFA84243D009
:1031E00005AE201C391C321CFFF724FF0023984237
:1031F0003BD03B78102B37D00B2D08D00C2D04D0B2
:103200001F230A2D04D13F2302E07F2300E05F2328
:10321000321C201C391C3371FFF71EFF62782B1CF7
:10322000954200D2131CDAB26370019B002B1BD1B4
:10323000AA4219D965701D1C23799D4214DA03A98D
:10324000EAB2201CFFF7B6FE201C03A96678FFF740
:1032500058FF864201D9607803E0201C03A9FFF7DC
:1032600050FF60700135E7E70123181C09B0F0BD7D
:1032700008B58068FFF75EFD013843425841C0B28F
:1032800008BD00000939C9B270B5051C022903D870
:103290000E4B4900CC5A00E00D4CEB78002B11D0BE
:1032A0002B78002B0ED102F085FB061C281CFFF7A3
:1032B000DFFF002809D102F07DFB23B2C01AB04223
:1032C00003D2F3E720B202F07BFB70BD488D000013
:1032D000EE02000010B5041C8068FFF7E7FCA06850
:1032E000FFF780FD2278A0684421FFF73AFDA3781C
:1032F000002B03D06178201CFFF7C4FF10BD10B570
:1033000053781478DB02E4001C430B78A4B2102B32
:103310000BD1D1799079081AC00102F02BFF0F234D
:103320009C431038E4000419A4B220B210BD000080
:1033300030B585B001AA051C0C1CFFF77BFE0028E8
:1033400005D0281C211C01AAFFF7D9FF00E0024884
:1033500000B205B030BDC04680E40000034BA5229A
:103360001A72DA79D209FCD17047C04600100040C9
:10337000044B02211A788A431A70DA79D209FCD1F7
:103380007047C04600100040064B02211A788A435D
:103390001A70D979034AC909FBD1937901210B43EA
:1033A00093717047001000400E4B0F4A30B59A6081
:1033B0000E4A5A605A78D209FCD10D4A094B0D4980
:1033C0005A800422CA670C4BC02149005A50C021C0
:1033D00089005D58094C2C405C501A600123037031
:1033E00030BDC046000C0040020400000203110082
:1033F0000342000004E100E000E100E0FFFF00FF05
:10340000F8B50378051C0F1C161C002B01D1FFF723
:10341000CBFF4A4C00232370E379DB09FCD1484BF6
:103420009F4225DC002F23D0FA235B00BF02FA2144
:10343000F818890002F09EFE424B98421CDC424B79
:1034400098421DDC414B98421EDC414B98421FDCE8
:10345000404B984220DCFF2822DC7F2824DC3F28D8
:1034600025DC1F2826DC0F2827DD0123102226E07B
:1034700080220B23D20122E080220A2392011EE047
:103480008022092352011AE080220823120116E04B
:1034900080220723D20012E08022062392000EE051
:1034A0008022052352000AE00423802207E0032340
:1034B000402204E00223202201E00023082201210F
:1034C000002E24D060790B260143617160780F21B2
:1034D00088433043607060780B401B010140194302
:1034E0006170237804210B432370E379DB09FCD15D
:1034F000FA26B600564380239B00281CF618FFF7D7
:103500002DFF237802221343B612237010E0207996
:103510000143217160780F210B408843034363709E
:10352000237804218B432370E379DB09FCD1DFE7A7
:10353000E379DB09FCD1301CF8BDC0460010004027
:103540007F3E0000FF1F0000FF0F0000FF0700008C
:10355000FF030000FF010000014B00221A707047BA
:103560008404002000B589B000236A46137008283F
:1035700022D802F0A7FD05080B0E1114171A1D0022
:1035800068460E4916E068460D4913E068460D4945
:1035900010E068460C490DE068460C490AE06846B0
:1035A0000B4907E068460B4904E068460A4901E018
:1035B0000A49684604F095FE09B000BD609100001C
:1035C000749100008B9100009F910000B491000065
:1035D000CB910000E3910000F89100000E920000F2
:1035E000F0B5051CA4358FB0041C0021FA22281C5C
:1035F00004F088FD00210F2202A804F083FD0AAE2A
:1036000000210F2206A804F07DFD0F220021301CAE
:1036100004F078FD1A4B281CFE33598A04F028FE6A
:10362000184F02A8B98A04F023FE3B1C50331988B6
:1036300006A8543704F01CFE3988301C04F018FE2C
:10364000FA239B0001930096201C291C02AA06ABBA
:1036500000F0C6FC012804D10B4BE0540B4BE054A6
:1036600006E0022806D1084B0122E054074BE25441
:10367000002003E00338431E984101300FB0F0BD35
:1036800024950000FC9200002A0400002B04000096
:10369000E1231B0210B54360012301700374041C75
:1036A000C82002F08DF9201C00F02EFB962040006F
:1036B00002F086F9201CFFF793FF201CFFF790FF14
:1036C00010BD0000F0B5051CA4358BB0041C0E1C09
:1036D000FA220021281C04F015FD00210F2202A867
:1036E00004F010FD00210F2206A804F00BFD114A82
:1036F000A4235B00D15A281C321C04F0B9FD0E4FE4
:1037000002A8398804F0B4FDB98806A804F0B0FD19
:10371000C8230093201C06AB291C02AA00F056FC0B
:103720000223012802D1054BE6540023181C0BB0DC
:10373000F0BDC04624950000FC9200004A03000042
:10374000F0B5061CA4368BB0041CFA220D1C301CEC
:10375000002104F0D7FC00210F2202A804F0D2FCC3
:1037600006A800210F2204F0CDFC1A4BE35C012BCC
:1037700002D0022B04D029E00720854227D802E09E
:103780000720042D23D8144B2A1C48331988301CD9
:1037900004F06EFD114F02A8398804F069FDB98864
:1037A00006A804F065FD64230093201C311C02AAC6
:1037B00006AB00F00BFC012803D1094B0020E554B7
:1037C00005E00238431E9841013000E008200BB0AC
:1037D000F0BDC0462A04000024950000FC920000C1
:1037E0004B030000F0B5061CA4368FB0051C002169
:1037F000FA22301C04F086FC00210F2202A804F0FB
:1038000081FC0AAF00210F2206A804F07BFC0F22E6
:103810000021381C04F076FC244B301CFE33598EFA
:1038200004F026FD224C02A8218804F021FDA18885
:1038300006A804F01DFDA31DD98F381C04F018FD47
:10384000FA235B0001930097281C311C02AA06ABE7
:1038500000F0C6FB01281DD10F22002102A804F0B0
:1038600051FC218B02A804F003FD4C340F220021EF
:1038700006A804F047FC218806A804F0F9FC0D4BCB
:10388000281C02A906AA00F0FAFA0138431E984142
:10389000C0B208E0022805D00338431E9841032334
:1038A000181A00E001200FB0F0BDC04624950000BA
:1038B000FC920000204E0000F0B5644B071C99B04C
:1038C0000025A437C5540391041C291C161C381C60
:1038D000FA2204F017FC291C142204A804F012FC9C
:1038E000291C142209A804F00DFC0EA8291C14227E
:1038F00004F008FC039B0720DF2B00D9A4E0301C58
:1039000004F0F7FC85420BD2735D1A1C303A092A89
:1039100003D9413B052B00D991E00135EDB2F1E728
:103920004B4B039A998A381C331C04F0A1FC494D77
:1039300004A8298804F09CFCA98809A804F098FC34
:103940002B1C48330EAE1988301C04F091FCFA236E
:103950009B0001930096201C391C04AA09AB00F0BF
:103960003FFB012865D10021142204A804F0CAFB02
:103970000021142209A804F0C5FB13AF0021142272
:10398000301C04F0BFFB14220021381C04F0BAFBE9
:10399000A98904A804F06CFC298C09A804F0A1FCF6
:1039A0000235698F301C04F09CFCE98F381C04F050
:1039B00098FC294B00970193201C04A909AA331CE9
:1039C00000F0E8F9051E012D2AD1FA22201C234916
:1039D000520000F04CFA231CA2331B88002B1DD090
:1039E0001F4E201C311C113004F09EFC04F03CFBE7
:1039F000EF239B00E054311C002004F095FC194B90
:103A0000071CE61800216522301C04F07BFB301CEB
:103A1000391C642204F074FC0C4BE554002013E0C4
:103A20000228FBD00520032D0ED0042D09D0022042
:103A30000AE0022807D00328F9D1062004E0072075
:103A400002E0281C00E0012019B0F0BD22040000B3
:103A500024950000FC92000020BF02003392000079
:103A600032920000BD030000F0B52C4E8BB0051C57
:103A70000C1C081C311C04F02AFC002806D0201C59
:103A8000274904F024FC0723002844D12E1CA43627
:103A9000301C0021FA2204F035FB00210F2202A87D
:103AA00004F030FB00210F2206A804F02BFB1D4B75
:103AB000221C4C331988301C04F0DAFB1A4F02A880
:103AC000398804F0D5FBB98806A804F0D1FBFA23A5
:103AD0005B000093311C281C02AA06AB00F076FAAA
:103AE000061E012E13D1201C0C4904F0F0FB002807
:103AF00002D1CF235B00EE54201C094904F0E7FB00
:103B00000023984207D1CF225200AB5403E0023E7B
:103B1000731E9E41731C181C0BB0F0BDCF8B0000B0
:103B20003692000024950000FC920000F0B5051CC0
:103B3000A4358BB0041C0E1CFA220021281C04F0B2
:103B4000E1FA00210F2202A804F0DCFA00210F2282
:103B500006A804F0D7FA124B321CFE33D98A281C6F
:103B600004F086FB0F4F02A8398804F081FBB98866
:103B700006A804F07DFB64230093201C291C02AAE4
:103B800006AB00F023FA012803D1074B0020E654CE
:103B900003E00238431E984101300BB0F0BDC0462F
:103BA00024950000FC92000042020000F0B5061CC3
:103BB000A4368BB0071C141C301C0021FA221D1CDB
:103BC00004F0A0FA02A800210F2204F09BFA06A834
:103BD00000210F2204F096FA0F4AA2235B00D15A6B
:103BE000301C221C2B1C04F043FB0C4C02A8218827
:103BF00004F03EFBA18806A804F03AFB642300937E
:103C0000381C06AB311C02AA00F0E0F9023843422E
:103C10005841C0B20BB0F0BD24950000FC920000EA
:103C200030B5051CA43585B0041C0021281CFA22DF
:103C300004F068FA684600210F2204F063FA0023BA
:103C40002B70231C5522A5331A700A4B684619881D
:103C500004F00EFB201C291C022200F0CCF9201CD1
:103C60006946642200F003F90138431E9841400080
:103C700005B030BDFC920000074BE12212025A60F1
:103C8000064A07499A606422DA6001221A74002207
:103C90005A5404495A54704788040020881300007D
:103CA0002B0400002A040000F7B5181C0191161C13
:103CB0001F1C04F01EFB051C0020041CAE4210D388
:103CC000731B9C420AD8019B391C18192A1C04F04A
:103CD00001FA002804D00134A4B2F1E7002000E08A
:103CE0000120FEBD08B5031C002904D10448191C9D
:103CF00000F0C6FA03E00348191C01F03FFD08BDBF
:103D0000540A0020B408002008B5031C1978406844
:103D1000FFF7E8FF08BD000008B5031C002904D127
:103D2000191C044800F01AFA03E00348191C01F0BA
:103D30004BFD08BD540A0020B408002038B5041C0F
:103D40000D1C2078002804D0291C0134FFF7E4FF63
:103D5000F7E738BD08B5002803D1044800F008FA99
:103D600002E0034801F021FD08BDC046540A0020CE
:103D7000B408002008B5002803D1044800F020FA58
:103D800002E0034801F01BFD08BDC046540A0020B4
:103D9000B4080020F0B5051C85B01135041C039152
:103DA000019200219022281C029304F0ABF9231CFD
:103DB000A23300261E8001F0FDFD371C009001F0AB
:103DC000F9FD009BC01A0B9B984245D22078FFF763
:103DD000C1FF00280ED08E2F0CD82078FFF7CAFF25
:103DE000E3195874231CA2331A887E1CB6B2013220
:103DF0001A80371C231CA2331E88201C291C321C4D
:103E0000039BFFF751FF002828D1019B002B06D010
:103E1000201C291C321CFFF747FF002820D1029BE1
:103E2000002B06D0201C291C321CFFF73DFF002868
:103E300018D10A9B002B06D0201C291C321CFFF72E
:103E400033FF002810D101F0B5FD009B9842B6D297
:103E500001F0B0FD0090B2E7002006E0012004E090
:103E6000022002E0032000E0042005B0F0BD07B509
:103E70000023019200931A1CFFF78CFF0EBD13B5AF
:103E80001C1C002300930194FFF784FF16BD000063
:103E900070B5002803D10E4800F070F916E001F06B
:103EA00089FD051C0B4C201C01F07FFC261C002802
:103EB00004D001F07FFD401B632803D9301C01F0C2
:103EC0006FFC03E0201C01F07AFCEBE770BDC046FC
:103ED000540A0020B4080020F0B585B00392029384
:103EE000037C041C0D1C002B02D00078FFF7D0FFD0
:103EF0002178281C261CFFF721FF1136E06801F00D
:103F00005FFD00219022301C04F0FCF8231C0025EA
:103F1000A2331D8001F04EFD2F1C019001F04AFDDF
:103F2000019BC01A0C9B984245D22078FFF712FFE4
:103F300000280ED08E2F0CD82078FFF71BFFE31936
:103F40005874231CA2331A887D1CADB201321A802A
:103F50002F1C231CA2331D88201C311C2A1C039BF0
:103F6000FFF7A2FE002828D1029B002B06D0201CC0
:103F7000311C2A1CFFF798FE002820D10A9B002B39
:103F800006D0201C311C2A1CFFF78EFE002818D1F9
:103F90000B9B002B06D0201C311C2A1CFFF784FE33
:103FA000002810D101F006FD019B9842B6D201F025
:103FB00001FD0190B2E7002006E0012004E00220AC
:103FC00002E0032000E0042005B0F0BD1FB500248E
:103FD00000940194069C0294FFF77EFF04B010BD8C
:103FE0001FB5069C009400240194079C0294FFF7DF
:103FF00073FF04B010BDF8B5037C041C0E1C171C25
:10400000002B02D00078FFF743FF351CAB1B9BB29F
:10401000BB4205D228782178FFF77EFE0135F5E70F
:10402000E06801F0CDFCF8BD154B70B58000C458B8
:1040300001262268257E937B1D40637E1D4035420C
:1040400004D0201CA3689847226896730226354244
:1040500004D0201CE36898472268967310263542E6
:1040600004D0201C23699847226896732026354285
:1040700004D06369201C984723689E7370BDC046B6
:104080005010002008B50020FFF7CEFF08BD08B58E
:104090000120FFF7C9FF08BD08B50220FFF7C4FFE4
:1040A00008BD000008B5024801F0B8FB08BDC046D5
:1040B000B408002008B5024801F0B0FB08BDC046B6
:1040C00078090020F7B5164F1649381C01F0F4F9AD
:1040D0001549164801F0F0F91549164801F0ECF9B8
:1040E0001549164801F0E8F91549164801F0E4F9B8
:1040F000154D03260124281C144901F0DDF9391C53
:104100000096231C01940022114801F063FB0096E5
:10411000291C01941F221E230E4801F05BFBF7BDF2
:10412000400A002000080042000C0042440A00201F
:1041300000100042480A0020001400423C0A0020FF
:10414000001800424C0A0020500A0020001C0042C7
:10415000B4080020780900203F20704713B502689A
:104160006B46D97107335468191C0122A04716BD4C
:1041700008B50069022100F033FC08BD08B50069EC
:10418000032100F043FC08BD38B50D1C041C131CB2
:10419000006903212A1C00F035FD002801D101230C
:1041A000636038BD10B5054C23685A1C04D1036800
:1041B000DB6898472060031C181C10BDD400002049
:1041C000074A08B51368591C04D0012149421160FF
:1041D000181C03E00069022100F006FD08BDC0467E
:1041E000D400002008B5037803490233037042224B
:1041F000024800F0BDFD08BD900000201F0F002008
:1042000010B50178031C42780020A12908D1212A89
:104210002FD118481849072200F0AAFD012028E0F4
:10422000212926D1202A05D113490722114800F05F
:1042300033FC04E0222A10D19A780F4BDA710E4B2E
:1042400096221968D200914210D1DC7901231C40DA
:104250000CD1FA2001F088F80AE0232A09D1DA7893
:104260009B7812021A43054B1A6002E001F082F8B3
:10427000002010BD1F0F0020840000208C000020B3
:1042800070477047064BFA21890099600549002262
:104290000831196004495A6019611A767047C0469E
:1042A000540A0020D09A00001F0F002070B5C2B23F
:1042B00019495301CB189E68184DC0242E40A405FF
:1042C00026439E60164E80010968301808325860F7
:1042D0005201505C0726B0430126304350549E697A
:1042E00035402C439C610F4C5C61505C7024A043B2
:1042F0001024204350549C680B488A182040802486
:1043000064032043986098684021800B8003986084
:1043100053790B43537170BD280F0020FFFFFF8FAF
:10432000400D00207C0B0020FF3F00F038B5041C3E
:1043300008CC01211A78051C0A431A708022201C1F
:104340000021520003F0DEFE2B689A78D107FCD4DE
:104350005C6238BD134BF0B51B6899035A029B0190
:10436000C90ED20E5B0F1F2900D105211F2A00D1D3
:104370001D22072B00D1032304688E01278D0A49D3
:104380001F2539403143218501682A400C8DAC43FB
:1043900022430A8502681903108D044B03400B4326
:1043A0001385F0BD246080003FF8FFFFFF8FFFFF03
:1043B000EFF3108303600123436072B67047036814
:1043C000002B02D162B6BFF36F8F704737B5056916
:1043D000041C6846002D12D1FFF7EAFF019B013B48
:1043E00003D3621DD57FEDB2F9E768460193FFF76D
:1043F000E6FF0020854217D0206AE36913E0FFF74B
:10440000D7FF019B0025013B04D3221C34321578D1
:10441000EDB2F8E768460193FFF7D1FF002085422F
:1044200002D0206BE36AC01A3EBD0000436810B59D
:104430001A68037A01215B01D318FF339A7A0A4381
:104440009A72037A42685B01D318C2689C6891042F
:104450000B4A090922400A439A60037A42685B01C9
:10446000D3189A684021920B92039A6043681A68A5
:10447000037A08335B01D3181A790A431A7110BD05
:10448000FF3F00F0F7B50569041C0E1C171C6846B9
:10449000002D1FD1FFF78CFF019B013B5A1C06D05A
:1044A000621DD17F5A1E00293AD0131CF6E76846D8
:1044B0000193FFF784FF0025E369BD4235D0226AEE
:1044C000934232D25A1CE261A269D3181B78735509
:1044D0000135F1E7FFF76CFF019B013B5A1C08D047
:1044E000221C343215785A1EEDB2002D18D0131C40
:1044F000F4E768460193FFF762FF0025E36ABD42D7
:1045000026D0226B934241D322E0621D0021D17755
:1045100030321678581E8E4214D1031C5A1CF4D126
:1045200068460193FFF74BFF38E0226A934235D18A
:104530000023E361012323616846FFF739FF019BF4
:10454000013BEBE71170201C0193FFF76FFFF6E7CB
:10455000226B934222D10023E36223616846FFF776
:1045600027FF019B013B5A1CDAD0221C3432002168
:10457000117001321678581E8E4201D1031CF2E7E9
:104580001170201C0193FFF751FFEAE75A1CE26209
:10459000A26AD3181B7873550135AFE7281CFEBDFE
:1045A00037B54368027A1B68083252019A18041C16
:1045B000D0790123FF21184253D0D371A0686569D7
:1045C00062680140002D20D1490152189168636151
:1045D0008904890C2162A16A68465160621DD37703
:1045E000FFF7E6FE019B013B5A1C33D0221C3432FC
:1045F0001178581EC9B20132002903D0019301235A
:10460000137023E01170031CEEE74B01D3189A6876
:10461000A5699204920C22630022626168465D6083
:10462000FFF7C6FE019B013B01E011702B1C591CDA
:1046300010D0221C343201201070621DD17F5D1E0B
:10464000C9B230320029F0D0019310706846FFF7EC
:10465000B6FE06E068460193FFF7B1FE201CFFF7A7
:10466000E5FE37BD37B500236C46E3710734201CE7
:104670000D1CFFF7B7FD2B681818286001F010FD1E
:10468000211C01F0C7FC2B681818286020783EBD5B
:1046900003290BD10D4BB2221B685200985C80217C
:1046A000494201439954022168220CE001290CD1AE
:1046B000064B92221B685200985C802149420143BC
:1046C000995402212822FF3299547047280F002064
:1046D00038B5304B00240121051C1A201C7001F054
:1046E000ADFB1A20012101F003FC2B4B1920012105
:1046F0001C7001F0A3FB1920012101F0F9FB274BED
:104700002021DA6901200A43DA61254B06241A7850
:1047100002431A70234B0F221978914319701978AC
:104720002143197020490C782043087019780A40F9
:104730001A701A7860210A431A701C4B1C4A5A805E
:104740005A78D209FCD11B4801F02EF91A4C201CD2
:10475000FFF7ECFD201CFFF7FDFD23687F22197891
:104760000A401A701A7804210A431A701A890C2117
:104770008A431A81C121114A890050580002000A57
:104780005050802111601A7802210A431A700123C7
:104790002B7038BD3C0D0020240F00200004004089
:1047A000584400413C44004159440041000C004041
:1047B00006400000FD510000280F002000E100E04D
:1047C0000078002810D0094B01211B681A898A4300
:1047D0001A811A8B08210A431A831A8B04210A436F
:1047E0001A83034B00221A607047C046280F00202E
:1047F0002C1000200F4B9A69920B92039A611B6850
:104800000222FF331A7298798022524202439A712F
:104810001A7A9007FCD5084B081C997A7F22104021
:10482000914301439972997A802252420A439A72C3
:104830007047C046280F0020005000410078002833
:1048400005D0034B01211B681A890A431A8170475E
:10485000280F002010B50B790C1C002B0BD1081C65
:10486000FFF7CEFC002804D1094B9A69920B920302
:104870009A6101200BE001F013FC211C01F0FEFB0A
:104880000028F6D1024B9A69920B92039A6110BDEF
:10489000280F0020F8B50D1C832A16D1CAB2424950
:1048A0005301CB189C694148AD012040C024A405A8
:1048B000204398613E48083245195D610B685201FA
:1048C000D15C70208143402065E0022A45D1382028
:1048D00001F0B4F8374B344F802603607600002394
:1048E000421D036203614361C36147608560C66026
:1048F000D3772F32041CC36203631370301C5370D0
:1049000003F0DEFBA061301C03F0DAFBFF232A1C5E
:104910001A405201A062BF18B968244A07260A400B
:10492000C02189050A43BA60A1686268194012680B
:1049300008314901885CAD00B043032630438854F8
:10494000A16862680B405B01A169D3185960201C03
:10495000FFF76CFD184BEC5025E0822A1ED1CAB23D
:1049600011495301CB189C691048AD012040C02467
:10497000A405204398610E48083245195D610B6813
:10498000520199180C798020404220430871D15C73
:104990007020814330200143D15404E0002A02D129
:1049A000081CFFF783FCF8BD280F0020FFFFFF8FD6
:1049B0007C0B0020009B0000000F002038B5051C78
:1049C0000124064BA200D258002A06D0211C281C24
:1049D0000134FFF75FFFE4B2F3E738BDD8000020F1
:1049E00008B5084B8A00D058002803D003689B689C
:1049F000984706E0C9B2044B4901591888688004F9
:104A0000800C08BD000F0020280F002010B50C1CE2
:104A1000FFF7E6FF00280CD0064BE1B21B68083117
:104A2000490159184A7980235B4213434B71022391
:104A3000CB7110BD280F002070B5CAB2134B1448BB
:104A4000540189015918031959609D6811490832A8
:104A500029408025AD022943996099684026890B39
:104A6000890399600368510159180D7935430D7117
:104A70005101591889794D06FAD551015918C9794A
:104A8000CD07FAD50419A068C0B270BD400D002052
:104A9000280F0020FF3F00F038B50C4B141C1B689A
:104AA0000D1CFF335A7940210A435A710021FFF748
:104AB000C3FFA04200D9201C0023A34204D0044A13
:104AC0009A5CEA540133F8E738BDC046280F00204D
:104AD000400D002010B5C9B20C48490143189A682E
:104AE0009204920C3F2A08D9141C9A68403CA404F2
:104AF000920BA40C9203224302E09A68920B920359
:104B00009A6041188868C0B210BDC046280F0020C6
:104B1000F0B51C1C2F4B85B01B68061C0D1C0292A7
:104B2000002B51D02C4F3978C9B2002902D119205D
:104B300001F0DEF964233B70284BAA00D05800280E
:104B400005D0036802995B68221C984740E0301C3E
:104B5000291CFFF745FFA04204D2301C291CFFF797
:104B60003FFF041C291C301CFFF7B4FF1C4FE9B2A7
:104B70004A010191396803928B18FF335A7A012157
:104B80000A4318495A72AB01C9180298221C03F053
:104B9000B0FA002C1BD0301C291CFFF721FF002885
:104BA00015D1019B3A6808335B01D318197940206D
:104BB000014319710121D97103995318FF339A7A6E
:104BC00001210A439A7202E00120404200E0201CC9
:104BD00005B0F0BD2C100020240F0020000F002095
:104BE000280F0020400D002013B56C460734221C0E
:104BF0000123FFF78DFF012801D1207801E001207A
:104C0000404216BDF0B51C1C3F4B85B01B680E1C06
:104C10000292002B6AD08023DB019C4266D83B4D78
:104C20002978C9B2002902D11A2001F061F9642360
:104C300000222B700092002C56D0354DF7B22B6815
:104C400001933B1C0833019A5B01D3189B79DB0964
:104C50001AD0304B3049186801F03EFA2F4B17211B
:104C6000584301F039FA3B1C0833019A5B01D31811
:104C7000DB799A0708D42A4B9A5D002A38D1421E64
:104C8000002835D0101CEEE7254B00229A55251E32
:104C90003F2D00D93F25234AB301D318181C029990
:104CA0002A1C039303F025FA194A7B01D318039AAF
:104CB000A9045A619A69890C920B92030A439A617A
:104CC0003B1C019A08335B01D3180222DA7159792F
:104CD000802252420A435A71009B029A5B19521970
:104CE0000093641B0292A6E700980BE0012008E005
:104CF00001229A557B01ED18AB69101C9B0B9B039D
:104D0000AB61404205B0F0BD2C1000203C0D0020EE
:104D1000280F00200401002040420F007011010004
:104D2000740B00207C0B002070B50E4D1C1C8B01F9
:104D3000ED18281C0E1C111C221C03F0DAF9F6B227
:104D40000949760189194D618A69084B201C134075
:104D50008B618B69A2049B0B920C9B0313438B61A9
:104D600070BDC0467C0B0020280F0020FF3F00F0E4
:104D7000F7B5114B01901B780F1C141C002B19D197
:104D80000E4B1E78002E01D1151C08E00C4D0D486D
:104D90002E888019361903F0ACF92E800AE0002D18
:104DA00008D0BA192B1C01980021FFF7BDFF361857
:104DB0002D1AF4E7201CFEBD1E0F00201C0F002042
:104DC000720B0020710A0020F8B50E1C00AF151EF2
:104DD000012D28D9D31DDB08DB006A46D21A95467F
:104DE000081C03F086FA01306C4640000323207053
:104DF00063700222AA420ED23378002B0BD0511CD2
:104E0000C9B20136A354A94204D00023023263542C
:104E1000D2B2EFE72A1C0548211CFFF7A9FF431E69
:104E20009841C0B200E00020BD46F8BD1F0F002031
:104E300008B5044B00221A70034B04491A88FFF787
:104E400097FF08BD1C0F0020720B0020710A002084
:104E5000F0B5204A87B001230026009102A9137003
:104E6000051C0296FFF7FEFB03AC092701903A1CD4
:104E7000201C311C03F046F902236370A023E37168
:104E8000FA232372029B0122DB196380019B62716A
:104E90002371104A009B27701670BB4205D1281C55
:104EA000211C1A1CFFF764FF11E00B4B01221A7042
:104EB0000A4B211C3A1C281C1E800296FFF758FF43
:104EC000281C02A9FFF7CEFB281CFFF7B1FF012029
:104ED00007B0F0BD1E0F00201C0F0020720B002039
:104EE00070B5CE788AB0051C0C1C022E08D1C9887A
:104EF0002348FFF7ADFF031C581E8341D8B23DE0A5
:104F000001F0CEF8211C01F09AF8002803D0C31755
:104F10001B1AD80F32E0012E04D1E2881949112A58
:104F200027D823E0032E29D1A278002A05D11649DB
:104F3000E2880B78934219D81BE0022A03D1A279A8
:104F4000281C124904E0012A05D1A2791049281C25
:104F5000FFF73AFF12E0032A10D101F0A1F801A9EE
:104F600001F07DF8A279281C01A9F1E7D2B2002A4C
:104F700000D10A78281CFFF7FBFE01200AB070BDA3
:104F80001F0F00201E9B00001A9B0000309B00009A
:104F9000109B000073B5051C48780C1C0B2878D8B2
:104FA00001F090F8081C7728773E4306474B686F5E
:104FB00000206FE0097801AA002903D11170517017
:104FC000281C09E0002313705370334B1B78012B0E
:104FD00000D11370281C002102234FE08A7800239F
:104FE000012A04D101AA137053702C4BEEE72A4A10
:104FF000137049E08E78012E07D1284B01AA0021B9
:105000001E701170281C331C38E0002E08D1224A73
:1050100001231370224A9169890B8903916138E059
:10502000A178281CFFF7E6FB33E0281CFFF758FFA8
:1050300030E0281C00211B4A1FE00A780020D3061C
:1050400028D1281CFFF7BAFCA2781549154B022479
:105050001A600A682A23FF33D05C2043D0544A20C8
:10506000FF30145C01231C4314548A69920B920391
:105070008A610EE00C4A281C00210123FFF754FE30
:1050800007E08A78084B1A60054B9A69920B9203E5
:105090009A61012076BDC046700A00201D0F0020D5
:1050A000280F00202C100020200F0020F8B54B4BBB
:1050B000071C1C78002C00D08EE0494D2868838B9B
:1050C00019070DD5201CFFF7F1F82B6810201A1CCA
:1050D000FF32917A01439172424A146008229A8306
:1050E0002B689A8B50071FD504229A833E4B1A785F
:1050F000002A0AD01A78013AD2B21A701B78002B13
:1051000003D11A20012100F0F3FE384B1A78002A4F
:105110000AD01A78013AD2B21A701B78002B03D148
:105120001920012100F0E4FE2B68FF331A7AD10622
:1051300026D510221A725A7940210A432C495A71F5
:105140000A786023381C1A4202D1FFF723FF01E0DE
:10515000FFF780FB002806D02B688022FF33997967
:1051600052420A4301E0234B20229A712B68FF33FD
:105170001A7A500604D540221A72597A0A435A7292
:105180002968FE230E8C00241E40E1B2002E23D09D
:10519000321C012322411A4216D0221C28680832F0
:1051A00052018218D079184203D1D279DA401A42DA
:1051B00007D0114BA200D058002809D003681B6803
:1051C00098470123A3409E430134092CDDD103E01D
:1051D000381CFFF75DFAF4E7F8BDC0461C0F00204D
:1051E000280F00202C1000203C0D0020240F002050
:1051F000400D0020FF500041000F002008B502487C
:10520000FFF754FF08BDC0461F0F0020014A024BA4
:105210001A60704700500041280F0020F7B58A1827
:10522000061C0D1C01920C1C019B671B9C4207D0A5
:10523000336821781B68301C984701340028F3D16B
:10524000381CFEBD08B50368C9B21B68984708BD85
:1052500038B5051C0C1C081E07D003F04AF82B6853
:10526000021C5B68281C211C984738BD08B5FFF755
:10527000EFFF08BD08B503681B68984708BD00002C
:1052800008B50249FFF7E4FF08BDC04633920000AD
:1052900038B5041CFFF7DCFF051C201CFFF7F0FFEE
:1052A000281838BD38B5041CFFF7E4FF051C201C86
:1052B000FFF7E6FF401938BDF0B58DB0161C0BABFB
:1052C000002201900C1C1A70012E00D80A266D468F
:1052D0002B35201C311C00F043FF201CCFB2311CA9
:1052E00000F0FAFE291C041C092F01D8303700E019
:1052F0003737FFB22F70013D002CEAD10198FFF73C
:10530000A7FF0DB0F0BDF8B5041C0D1C161E04D18E
:105310000368C9B21B68984712E00A2A0DD1002918
:105320000ADA2D21FFF7A6FF6942071C321C201C58
:10533000FFF7C2FFC01903E000E0D2B2FFF7BCFFE5
:10534000F8BD08B5FFF7DFFF08BD08B5002A02D198
:10535000FFF778FF02E0D2B2FFF7AEFF08BD08B555
:10536000FFF7F3FF08BD0000014B18607047C0460F
:1053700000010020024B012252421A607047C046D1
:1053800000010020154A1368581C25D0013B13600A
:10539000002B21D172B6124A124B04329A4207D81E
:1053A000BFF34F8F104A114BDA60BFF34F8F11E0FC
:1053B0000F4B197DC807FBD5188B2021FF319208B0
:1053C000520001431983DA610A4A1A801A7DD10713
:1053D000FCD5E5E7C046FDE77047C0460001002068
:1053E00000200000030200000400FA0500ED00E0C8
:1053F0000040004102A5FFFF10B50021041CA422BB
:1054000002F080FE221CA4320023201C1360536093
:1054100010BDF8B5051CA4352E68041C0F1C701CAB
:10542000A42100F09DFE231CA8331B68994201D0E3
:10543000A7552960F8BD021C0023A432A8301360D0
:105440000360704738B5021C041CA834A4322368DA
:105450001268934207D0C55CA421581C00F080FE5E
:10546000281C216001E00120404238BD031CA43308
:10547000A8301A680368D01A00D5A4307047031CFE
:10548000021CA833A4321B681268934201D0C05C8E
:1054900001E0012040427047031CA43310B5041CF6
:1054A0001868A421013000F05BFEA8342368C81AF4
:1054B00043425841C0B210BD01607047F7B508AC17
:1054C000267804689D1E27686C1EA541ECB29207E1
:1054D00005683A4327063A432A60026807252940AF
:1054E0005068B501002C00D05C03294301430C43F4
:1054F0005460F7BD30B50368C0251C68AD031205C4
:105500002A402243C024A402090421401143196007
:1055100003685A6814435C6030BD036801211A684F
:105520000A431A600268116801231942FBD1D1694C
:105530001942F8D17047036802211A680A431A60B9
:105540000268D3699907FCD4704703681A7ED107B3
:1055500002D41A7E9107FCD57047036800225A8353
:1055600070470368187E4007C00F70470368187EB5
:10557000C009704703688022197E52420A431A7696
:1055800070470368188DC0B2704703681A7E012007
:105590000242FBD019857047036880221968596858
:1055A000D2020A435A6070470368034A196859686F
:1055B0000A405A607047C046FFFFFBFF30B50368E2
:1055C00003241D680C40074A596824040A40ED066C
:1055D00022436D0F5A60052D03D10268D369590724
:1055E000FCD430BDFFFFFCFF03682833197003684B
:1055F00000201A7E510703D55B8B01209B0898433E
:10560000704703681868C006400F04384342584189
:10561000C0B270470368187E4007C00F7047036828
:10562000187E0123184070470368588BC006C00FCE
:1056300070470368187E8007C00F70470368588B57
:105640000007C00F704703681A68D206520F052A78
:1056500002D11A7E9107FCD528331878C0B2704762
:105660000368224A30B5934211D0214A934211D0A7
:10567000204A934211D0204A934211D01F4A9342AC
:1056800011D01F4A934230D10E2319220DE0092375
:1056900014220AE00A23152207E00B23162204E055
:1056A0000C23172201E00D231822DCB2154901203A
:1056B0009B08A0409B0008605B180320C021890064
:1056C00004405D58E000FF248440A5432C1CC02505
:1056D0008540281C204358508023DB011A430A4B85
:1056E0005A805A7852B2002AFBDB30BD00080042D3
:1056F000000C00420010004200140042001800425A
:10570000001C004200E100E0000C0040F8B5041C61
:10571000151C0E1C1F1CFFF7A3FF201CFFF7FDFE2E
:10572000B1001C220A4069072368090C0A431A6069
:10573000226884239375012E1AD10821012D00D1EE
:1057400010210C4B79431868C00000F0C5FC236899
:1057500007219A890140D2044903D20C0A439A8155
:1057600023680004C20C9889400B400310439881C1
:10577000F8BDC046040100200120704708B5036849
:10578000014ADB69984708BD1304000010B5041CEA
:105790000069FFF7C2FE201C1430FFF74CFE10BD5D
:1057A00008B50069FFF7D1FE08BD08B51430FFF752
:1057B0005DFE08BD08B51430FFF761FE08BD08B5F1
:1057C0001430FFF73FFE08BD08B50069FFF7DDFEA6
:1057D000012008BDF7B51D1C08AB1B78041C009305
:1057E00009AB1B78161C019300234360FA239B002E
:1057F0008360094B0F1C083303601430FFF7FCFD76
:10580000009A231CC03327619A70019A1E705D7044
:10581000201CDA70FEBDC046489B000010B5041C79
:105820000069FFF79EFE002807D02069FFF7A9FE58
:10583000011C201C1430FFF7ECFD2069FFF796FED9
:10584000002805D02069FFF795FE2069FFF785FE47
:1058500010BDF023081C18403038434258417047AF
:10586000F0231B01194080239B0099420CD0C023D8
:105870009B00994206D080235B000520994204D00A
:10588000002002E0072000E0062070470F231940A7
:10589000012905D002394B424B410220C01A00E0D9
:1058A00000207047F0B5031C85B00391C033041C81
:1058B000182718783B1C43431B4E0821F3185956F0
:1058C000151C00F045FB231CC13318780821474301
:1058D000F619715600F03CFB01210A1C039B20695C
:1058E000FFF714FF291C201CFFF7BAFF291C071C17
:1058F000201CFFF7CBFF291C061C201CFFF7A9FF6B
:10590000391C0090331C20690122FFF7D7FD231CAE
:10591000C3331978013B1A782069FFF7EBFD206942
:10592000FFF709FE05B0F0BD80960000FEE700001D
:1059300008B5034B1B68002B00D0984708BDC04634
:105940003010002038B50F490F4CA14204D100F0AF
:1059500079F800F053F80BE00C4D8D42F7D000239E
:10596000CA18E818A24204D2006804331060F7E7AE
:10597000FEE79042EBD0064B064A9342E7D2002264
:1059800004C3F9E700000020A0010020B49D00003E
:10599000A00100206010002008B500F02CF80028BD
:1059A00001D100F01DF808BD014B18607047C046DA
:1059B00030100020014B18687047C046341000209A
:1059C00070B5041E08D0054B1D681E1C00F012F8AF
:1059D00033685B1BA342F9D370BDC046341000206E
:1059E00008B5034B1A6801321A60FFF7CBFC08BDFB
:1059F00034100020704700207047704710B500F049
:105A0000D5F802F037FBFFF7F8FF0120FFF7D8FFCA
:105A1000084C201CFEF75CFE201CFEF7D1FEFCF7B4
:105A200053FDFCF779FB044B002BFAD000E000BFDC
:105A3000F7E7C0461F0F00200000000008B502F085
:105A40003FFB08BD70B5494A1E21536802208B43B5
:105A50000343474953608B69082423438B61454CBA
:105A6000454B9C829C8A20439882101CDA689407DC
:105A7000FCD5424A012414701478E50704D53F4C44
:105A8000647864B2002CF7DB01249460547864B22B
:105A9000002CFBDB3A4D394C6560547864B2002C25
:105AA000FBDB8225354CED016580547864B2002C17
:105AB000FBDB02249C84DC68E606FCD5314D2E4CD1
:105AC000E562DD682C4CEE06FBD5A58C2E4E3543E9
:105AD000A584DD68284CEE06FBD5A58C022635434F
:105AE000A584DC682506FCD5234CE4686606F8D559
:105AF000DC68E506FCD500249460547864B2002C80
:105B0000FBDB224D1D4C656055781C4C6DB2002DA1
:105B1000FADB1E6A1E4D35401D621D6A8026B543A4
:105B20001D620323A3601B4B636053785BB2002BA1
:105B3000FBDB00230B72184A4B728B72CB72174B34
:105B4000FF211A60164B174A1B6812685C01D20EBF
:105B5000214011439A06520F12020B1C1343124AA2
:105B60001385436880221343436070BD00400041A9
:105B7000000400400C06000000080040000C00403B
:105B800001050100B805FF7D040A000000070300BD
:105B9000FFFCFFFF03060100006CDC020401002093
:105BA000246080002060800000400042314BFA21D8
:105BB000186810B5890000F08FFA2F4B0138984211
:105BC00024D82E4A2E4B5060186AC0210002000AC9
:105BD0000906014319620024072194601160196AC3
:105BE00080220902090A12060A431A62254BFC2187
:105BF0001A6A0A431A62196AFC2292010A431A625B
:105C0000196AA022D2020A431A6200E0FEE7201CB1
:105C10000021013400F012F9142CF8D11A4C6378E9
:105C20005BB2002BFADB194B6380194B5A7ED20909
:105C3000012AFAD0E422D2009A803F22DA70597EFB
:105C4000134AC9090129FAD0C0235B01002013615E
:105C5000907000F053F863785BB2002BFBDB0D4AC9
:105C6000094B5A800C4BDA79D209012AFAD0412229
:105C70005A7010BD04010020FFFFFF0010E000E09B
:105C800000ED00E000040040000C00401E40000059
:105C9000004000422140000000480042914205D0EF
:105CA00002D9891AC84001E0511A884070470000A3
:105CB0000F4B302118600F4A0F4B0A2804DD9888DB
:105CC000884398800C210DE0082807DD98888843D8
:105CD000011C2020014399800A2103E09888014398
:105CE0009980082111605A7ED209012AFBD07047A1
:105CF0000C010020080100200040004200B5144AB9
:105D0000517E131CC9090129F9D00138042813D880
:105D10001969104A0A401A615A780F218A4300F023
:105D2000D1F9030509070300012102E0032100E086
:105D300002210A435A700AE01169F0231B050B4344
:105D4000136153780F218B4302210B43537000BD25
:105D500000400042FFFFFFF010B5041E062C05D0E6
:105D6000072805D0052804D80E3402E02C2400E0D2
:105D70002D24201C012100F0EBF80E2C0CD12A4B15
:105D8000DA79D209012AFAD01A7802218A431A70E4
:105D9000DA79D209012AFBD0244B5A7ED209012A92
:105DA000FAD018225443224A18691419217C1F2260
:105DB00090431140021C0A431A61597E1B4AC909CB
:105DC0000129FAD01178022001431170597E174A37
:105DD000C9090129FAD0117B022001431173012165
:105DE0001176597E114AC9090129FAD0117B022086
:105DF000014311731A7ED107FCD50C4A508B80B237
:105E0000597E0A4AC9090129FAD011780224A1430E
:105E100011705A7ED209012AFBD0064B1968064B35
:105E20001A68FFF73BFF10BD0048004200400042E7
:105E300080960000080100200C01002010B51824F5
:105E4000021C201C5043274B1818007A40B2013026
:105E500046D0032944D8081C211C00F033F9023332
:105E60001121624398569A18C3011F4852681B18A3
:105E700099184031022008700121914059602FE0AB
:105E80006243985618499A185268C3015B189918CA
:105E900040310620087001219140596099611FE04E
:105EA00051435A56104859184B68D2011118C81856
:105EB0004030062404700120984048600B49521875
:105EC00050600DE0624398569A18C3010648526824
:105ED0001B189918403102200870012191409960E7
:105EE00010BDC046809600000044004110440041AF
:105EF00018235843134AF0B5131808241C570134CB
:105F00001FD08256104ED2015D6801249019231CC7
:105F10008668AB401E420BD10E1C771EBE41401955
:105F200034404030A50004780426B4432C43047068
:105F3000002903D105495218536002E0024E92191C
:105F40009361F0BD80960000004400411044004180
:105F500018224243F8B52D4D0824AA181457031CE3
:105F6000621C50D0481C00240C284CD800F0AAF821
:105F7000071E1E1E1E1E1E1E1E0A0A0A0A000124DD
:105F8000644240E0092902D1181C002103E00A29DB
:105F900004D1181C0221FFF751FF23E000240B2934
:105FA00031D1181C0121FFF749FF2CE0182253437F
:105FB000EA185268EB560120141C04405508DB0116
:105FC000002C11D0124C1B195D1930352E780C01A4
:105FD0000F21314021439A18C9B2297040321378F9
:105FE0001843107000240EE0094E0F279B195D190D
:105FF00030352E789A18BE433143C9B229704032E9
:10600000137818431070201CF8BDC046809600001D
:106010000044004170B544680E1C0025002C09D0D6
:106020002368201C5B68311C9847002804DB2D186E
:10603000E468F3E7281C01E00120404270BD38B558
:1060400044680D1C002C08D02368201C9B68291C68
:106050009847002802D1E468F4E7201C38BD38B521
:1060600044680D1C002C07D02368201C291CDB6809
:106070009847E4682D18F5E72C7038BD38B54468AA
:106080000D1C002C08D02368201C1B68291C984775
:10609000002803D1E468F4E7201C00E0012038BDAB
:1060A000064B0122196810B51140054805D102249C
:1060B00004700424447041601A6010BD4010002038
:1060C0003810002002B4714649084900095C4900B3
:1060D0008E4402BC7047C046002934D00123002200
:1060E00010B488422CD301242407A14204D2814257
:1060F00002D209011B01F8E7E400A14204D2814267
:1061000002D249005B00F8E7884201D3401A1A43E3
:106110004C08A04202D3001B5C0822438C08A0421A
:1061200002D3001B9C082243CC08A04202D3001BD0
:10613000DC082243002803D01B0901D00909E3E74A
:10614000101C10BC7047002801D00020C04307B4C9
:10615000024802A14018029003BDC046D9000000C9
:106160000029F0D003B5FFF7B9FF0EBC4243891AEE
:106170001847C046002941D010B4041C4C40A44626
:1061800001230022002900D54942002800D54042C1
:1061900088422CD301242407A14204D2814202D296
:1061A00009011B01F8E7E400A14204D2814202D2B6
:1061B00049005B00F8E7884201D3401A1A434C08B3
:1061C000A04202D3001B5C0822438C08A04202D3E9
:1061D000001B9C082243CC08A04202D3001BDC0811
:1061E0002243002803D01B0901D00909E3E7101C52
:1061F0006446002C00D5404210BC7047002806D0F1
:1062000003DB0020C043400801E08020000607B403
:10621000024802A14018029003BDC04619000000C8
:106220000029EBD003B5FFF7A7FF0EBC4243891A44
:106230001847C0467047C0468446081C6146FFE7C1
:106240001FB500F0E3F9002801D40021C8421FBDAA
:1062500010B500F069F94042013010BD10B500F0F2
:10626000D5F9002801DB002010BD012010BDC0467B
:1062700010B500F0CBF9002801DD002010BD012091
:1062800010BDC04610B500F079F9002801DC0020EF
:1062900010BD012010BDC04610B500F06FF90028F8
:1062A00001DA002010BD012010BDC0469E2110B5AE
:1062B000C905041CFFF7F0FF002803D1201C00F0E3
:1062C0008BFC10BD9E21C905201C00F015FB00F0C1
:1062D00083FC80231B06C018F3E7C046F0B55F4679
:1062E00056464D464446F0B446024500C00F85B0C0
:1062F0000F1C760A2D0E804641D0FF2D26D080241B
:10630000240400212643F6007F3D89468B46F90F81
:106310007C027800640A000E00918A463CD0FF2877
:1063200034D080231B041C430023E4007F380193F6
:10633000009F4346019A7B4049469C4611430F29E2
:1063400000D971E0764F89007F58BF46002E3ED1BC
:106350000822022391469B46D9E75A46341CC2467E
:1063600001920199022937D0032900D1CFE00129F8
:1063700000D0ABE053460B400022002632E0002E56
:1063800019D10421012289469346C0E7221C531EDD
:106390009A4102320192CBE701270197002CC7D026
:1063A000201C01F043FE431F9C4076235B420021EA
:1063B000181A0191BCE7301C01F038FE7625431F06
:1063C0009E406D4200232D1A99469B469FE70C2361
:1063D000032199468B469AE7D446012367463B4002
:1063E000FF2200267602D205700ADB07104318430D
:1063F00005B03CBC90469946A246AB46F0BD80260F
:106400000023F603FF22EDE700220026EAE78020C2
:10641000C00306423BD0044239D1061C2643760213
:10642000760A009BFF22DDE7281A039076016401BB
:10643000A64239D3361B1A2201230120311C5B00EE
:106440007600002901DBB44201D8361B0343013A30
:10645000002AF3DC741EA641341C1C43039A7F32CD
:10646000002A27DD630704D00F232340042B00D02C
:106470000434270103D52B4B039A1C408032FE2A9B
:106480000BDD012361460B40FF220026AAE70643ED
:106490007602760A4346FF22A4E7A4010123674659
:1064A000660AD2B23B409DE7039F1B22013F039740
:1064B0000023C2E77E23039F5B42DB1B1B2B07DD10
:1064C000012361460B40002200268BE7D446C5E736
:1064D000221CDA40039B9E339C40231C5C1EA3417C
:1064E00013435A0704D00F221A40042A00D0043361
:1064F0005F0105D5012361460B400122002671E7AB
:106500009E01624601231340760A00226AE7802634
:10651000F60326437602760A5346FF2262E7C04618
:10652000789B0000FFFFFFF74A02430270B55C0A48
:10653000550A43004A001B0EC60F120EC90FFF2B4F
:1065400005D0FF2A08D0012093420BD070BD012056
:10655000002CFBD1FF2AF6D10120002DF6D101201D
:106560009342F3D1AC42F1D18E4205D0002BEDD154
:10657000201C441EA041E9E70020E7E74A0243024D
:10658000F0B55C0A550A43004A001B0EC60F120EF6
:10659000C90FFF2B31D0FF2A34D0002B16D1604217
:1065A00060418446002A14D0002820D18E4217D1A1
:1065B000934215DC04DBAC4212D80020AC4212D26C
:1065C000704270414042012318430CE0002AEDD193
:1065D00094466F426F416046002805D1002FE5D0F8
:1065E000704201231843F0BD0020002FFBD1484228
:1065F0004841404201231843F5E7002CCBD002204C
:106600004042F0E7002DC8D0F9E7C0464A024302F5
:10661000F0B55C0A550A43004A001B0EC60F120E65
:10662000C90FFF2B27D0FF2A29D0002B10D0002A1A
:1066300015D194466F426F416046002815D0002066
:10664000002F04D148424841404201231843F0BD85
:10665000604260418446002AECD00028F2D18E428C
:1066600011D0704201231843F1E7002FF7D0704298
:1066700001231843EBE70220002CE8D1D3E70220E6
:10668000002DE4D1D1E79342EBDC04DBAC42E8D847
:106690000020AC42DBD270427041404201231843DB
:1066A000D5E7C046F0B55F4656464D464446F0B481
:1066B0004402460083B00F1C640A360EC50F002E3C
:1066C00041D0FF2E22D080231B0400201C43E40075
:1066D0007F3E82468046391C4B007F02C90F7F0AED
:1066E0001B0E8B463BD0FF2B34D080221204174365
:1066F000FF007F3B00215A466A40019252460A43FE
:106700000F2A63D87A48920082589746002C3FD1CE
:106710000822022392469846DDE70195404602286A
:106720002AD1019A01251540FF2300246402DB05CC
:10673000600AED071843284303B03CBC90469946D5
:10674000A246AB46F0BD002C27D104200122824690
:106750009046C0E7391C4A1E91410231CBE7012126
:10676000002FC8D0381C01F061FC431F9F407623E6
:106770005B421B1A0021BEE7032800D1AEE00128CE
:106780004FD1019842461040C5B200230024CDE706
:106790000C2303209A4680469DE7201C01F046FC0E
:1067A0007626431F9C4076420023361A9A46984626
:1067B00091E780240025E403FF23B7E75B463C1CF8
:1067C00001938846AAE73C1C8846A7E7250C2404C9
:1067D0003A0C240C3F04F6183F0C211C231C79436F
:1067E00053436F435543FB180A0C9B18B1469F4215
:1067F00002D980225202AD1809041A04090C521859
:1068000094011B0C611E8C41920EED181443AD01D6
:106810002C43230105D50122630801201440814443
:106820001C434B467F33002B2DDD600704D00F2225
:106830002240042A00D00434220103D52D4B1C40F1
:106840004B468033FE2B17DD019B01251D400024A4
:10685000FF236BE78020C003044208D0074206D123
:10686000041C3C436402640A5D46FF235EE7044364
:106870006402640AFF2359E70198A4010125640A10
:10688000DBB2054052E77E235B424A469B1A1B2B34
:1068900005DD019B01251D400024002346E7221C45
:1068A000DA404B469E339C40231C5C1EA34113439D
:1068B000580704D00F221A40042A00D004335A018A
:1068C00005D5019B01251D40002401232EE70198D9
:1068D0009C010125640A0540002327E78027FF0368
:1068E000019B3C43640201251D40640AFF231DE710
:1068F000B89B0000FFFFFFF7F8B5C20F430244004A
:106900004D024800240E161C9B09000EC90FAD094C
:10691000FF2800D17EE0012779408A4258D0221A10
:10692000002A00DC89E000281BD1002D00D075E092
:10693000580704D00F221A40042A00D0043359010A
:1069400038D50134FF2C00D183E09B0101225B0A82
:10695000E0B232405B02C405580AD207204310431C
:10696000F8BDFF2CE4D08021C9040D431B2A00DDB3
:106970002DE1291C2020D140821A95406A1E9541A4
:106980000D435B1B5801D3D59B019F09381C01F0B7
:106990004DFB421F9740944260DC141B1F231B1BBE
:1069A0003A1C9F40611C3B1CCA405F1EBB41134305
:1069B0000024BDE70122DB08E0B23240FF2C04D105
:1069C000002B7ED08021C9030B435B025B0AC1E729
:1069D000211A002946DD002826D0FF2CA8D08020CF
:1069E000C00405431B2900DDEFE0281C2027C84018
:1069F000791A8D40691E8D4105435B19590197D560
:106A00000134FF2C5CD0734901221A400B405B0813
:106A100013438DE7002D00D07FE77CE7013A002A81
:106A2000AFD0FF2CA2D183E7002D00D180E7013940
:106A30000029E2D0FF2CD5D17AE7002A1ED1621CB2
:106A4000D2B2012A4EDD5F1B7A0126D5EF1A0E1C49
:106A50009CE701223240FF2000237BE75D4BA41A14
:106A60003B4065E7002946D1611CC8B201282ADDF8
:106A7000FF2925D0EB185B080C1C59E7002C13D01C
:106A8000FF2818D08024E404524223431B2A4DDD02
:106A90000123EB1A041C0E1C74E7002F00D075E7CD
:106AA00000220020002390E7002B3BD0D243002A95
:106AB000EFD0FF28EAD12B1CFF240E1C38E7002260
:106AC000FF20002346E7002C5AD1002B77D0002D61
:106AD00000D12DE75B19580100D429E73D4A012474
:106AE000134025E7002C15D1002B2FD1002DD7D036
:106AF0002B1C0E1C1CE7002C21D1002B53D0C943AA
:106B0000002904D0FF284BD01B294FDD01235B193E
:106B1000041C73E7002B22D1002DD0D02B1C0E1C9F
:106B2000FF2405E72B1C041C0E1C01E71C1C20265F
:106B3000D440B21A93405A1E93412343A9E7FF2839
:106B40002ED08024E40449422343DDE7002D00D108
:106B5000EEE65A1B500134D5EB1A0E1CE8E6FF2472
:106B6000002D00D1E4E68022DB08D203134204D0DA
:106B7000ED08154201D12B1C0E1CDB00FF24D7E6CB
:106B8000002B0DD0FF24002D00D1D1E68022DB08A0
:106B9000D2031342F1D0ED081542EED12B1CECE7E5
:106BA0002B1CFF24C4E62B1C041CC1E61C1C202744
:106BB000CC40791A8B40591E8B412343A7E72B1CED
:106BC000B6E6131E00D0B3E66AE7012515E70125F6
:106BD000D7E6C046FFFFFFFB4302590A4300C20F3E
:106BE0001B0E00207E2B0DDD9D2B0CDC8020000475
:106BF0000143952B0ADC9620C31AD9404842002A4B
:106C000000D1081C7047034BD018FBE7963B994016
:106C1000F4E7C046FFFFFF7F70B5041E3CD0C60FEF
:106C200000D04442201C01F001FA9E23251C1B1AAF
:106C3000962B0CDC083884406402640ADBB2321CF8
:106C40006402DB05600AD2071843104370BD992B1C
:106C50000ADD0522121A211CD1400A1C011C1B311D
:106C60008D40691E8D411543052801DD421F954069
:106C7000164C2C406A0704D00F221540042D00D07A
:106C8000043461010CD59F23181AFF281AD0A401DF
:106C9000640AC3B2321CD3E7002200230024CFE7EA
:106CA000E408FF2B04D06402640ADBB2321CC7E79D
:106CB000002C04D08020C00304436402640A321C08
:106CC000FF23BDE7321CFF230024B9E7FFFFFFFBD2
:106CD000F8B55F46564644464D46F0B40C034D00A9
:106CE000CE0F610A440F2143C400180380465800A8
:106CF000400D8246D80F84464046400A530F034356
:106D0000D0006D0D371C83465246664500D19DE08C
:106D1000AF1A002F00DC03E1002A38D1184300D05D
:106D2000E4E0630709D00F232340042B05D0231D83
:106D3000A342A441644209191C1C080200D478E053
:106D4000CE4B6A1C9A4200D105E1CD4BE4081940B4
:106D500048075205490204430B0B520D371C002013
:106D600000211B03201C1C0B0B0D1B05C54D2343D1
:106D7000520552081D4015436D006D08FF07291C80
:106D800039433CBC90469946A246AB46F8BDBB4849
:106D90008542C6D0802000040343382F00DDECE09C
:106DA0001F2F00DD20E12020C01B1A1C81468240DD
:106DB0005846F8400243944658464A469040421E80
:106DC0009041FB40624602431F1CA21A9442A44118
:106DD0006442C91B091B141C0B02A2D549024F0AAD
:106DE000002F00D1C4E0381C01F020F9021C083A41
:106DF0001F2A00DDB7E02821091A201C9740C8404F
:106E000007439440954200DDA9E0551B691C1F29EA
:106E100000DDD8E01F22551B3B1C221CAB40CA40A2
:106E2000AC40651EAC411343CF401C43391C0025C8
:106E300077E74807E4086A05C908520D371C044380
:106E40008E4B9D4248D009030B0B88E7AA1A944643
:106E5000002A00DC98E05046002853D0874885423D
:106E600000D15EE78020000403436246382A00DD3B
:106E7000FDE01F2A00DD4BE120226046101A1A1C9B
:106E800082408246914658466246D0404A46024376
:106E90009046584652469040421E90414246024318
:106EA0006046C3401219A242A4416442591809190C
:106EB000141C080200D434E7704B01359D4200D108
:106EC00024E16F4B60081940012323401C1C04433C
:106ED000CB071C43490824E70B1C234300D1C7E11F
:106EE00080231B030B431B031B0B38E7013F002FC1
:106EF00064D15846221A9442A4416442C91A091B1B
:106F0000141C69E75846184300D10AE7012252428F
:106F100094446046002800D0C5E058460219C2E7F4
:106F2000002F72D1681C4005400D012800DCDEE016
:106F30005A46A21A9442BF41C81A7F42C71B380260
:106F400000D488E05A46141BA3459241591A524274
:106F50008F1A664644E7371C00230024FFE64849A1
:106F6000AD1A3940DDE6271C28388740002449E760
:106F7000201C01F05BF8203038E75A461A43531EB4
:106F80009A41D2B2002720E7002A00D0DDE0681C39
:106F90004205520D012A00DC8EE0384DA84200D196
:106FA000B3E05D462A19A242A44164425918091966
:106FB000CC07520814434908051CB2E62F48854205
:106FC00000D0EAE6ADE62B1C1F3B3A1CDA40131C4E
:106FD00020296DD03F22551BAF403C43601E8441A9
:106FE0001C43002100259CE6381C20381A1CC24096
:106FF000101C202F5ED04022D71BBB405A461A439C
:10700000531E9A4102430027DFE6002D3CD01B4D62
:10701000AA4500D194E080252D047F422943382FD2
:1070200000DDADE01F2F00DD2CE12025ED1B081C4D
:10703000261CA840FE40AC400643651EAC413443CC
:10704000F9405D462C1BA34592415B1A5242991AA6
:1070500055466646C0E6131C3B43141C002B00D06B
:10706000BEE600270022002500210024E8E65A465B
:107070001A43531E9A41D2B2002313E7FF070000C0
:10708000FFFF7FFFFFFF0F800D1C254358D0FF43FC
:10709000002F51D1041BA3459241591A5242891A1B
:1070A0005546664698E69648854200D0DDE638E6C5
:1070B000002792E70023A1E7081C2043002D00D001
:1070C000C0E0002800D1FBE05846184300D128E674
:1070D00058460219A242A441644259180919141CC5
:1070E0000A0200D41DE6874B0125194019E6081C49
:1070F0002043002D39D100286DD15946194300D1C4
:10710000BDE0191C5C4666460BE6051C2A1CABE775
:10711000604620381A1CC24060469146202800D1A3
:10712000ABE04022121A93405A461A43531E9A412A
:107130004B461A430023B5E6714DAA4500D06EE7D1
:10714000191C5C4655466646EBE5002D1ED10D1C0C
:10715000254373D0D543002D6DD15C445C459241ED
:107160005918524289185546A3E6002849D1594674
:10717000194300D196E0191C5C466646604DD0E587
:107180000C43611E8C41E4B200215AE75C4DAA45D4
:1071900054D05542802210040143382D00DD85E093
:1071A0001F2D00DD95E02022501B0A1C84468240E2
:1071B000201CE8400243904662469440601E844191
:1071C00042461443E9405C445C459241CB1852422C
:1071D000991855466DE65846184300D1A1E5584622
:1071E000271ABC429241C81A5242801A02026AD53A
:1071F0005846041BA3459241591A5242891A6646C1
:107200008FE55846184336D04807E40804438020E9
:10721000C9080003014208D0DD08054205D15946DE
:10722000CA085C071443291C6646630FC90019434A
:10723000E400334D75E5324A9245AED1191C5C46E7
:1072400055466EE5002837D05846184313D08025A0
:107250004807E408C9082D0304432942E5D0D808AB
:107260002842E2D15D46EA085C071443011CDCE7D2
:107270000023002473E5224D53E5002354E7002743
:107280000022F1E63D1C203D0A1CEA40151C202F7F
:1072900031D04026F71BB9400C43611E8C412C4372
:1072A0000021CEE6164A0027151CDDE60C43611EC0
:1072B0008C41E4B2002186E7191C5C46104D30E594
:1072C000191C5C462DE5031C3B43D8D0011C3C1C1B
:1072D00027E52020404240190A1CC2409046202D3C
:1072E0000BD04020451BA9400C43611E8C414546F4
:1072F0002C43002167E70021CEE70021F4E7C046D8
:10730000FF070000FFFF7FFFF0B5564644465F468B
:107310004D46F0B41F1C0B031B0B98464B0087B067
:10732000041C81465B0DC80F161C9A460090002B6A
:1073300051D06A4B9A4531D08022414652030A43CC
:10734000630FD2001A43664B90460025E200914637
:107350009A44002402953B031B0B9B46FD0F7B00C8
:10736000311C5B0D019560D05C4A934254D0802162
:10737000584649030143720FC9001143584A8B46CE
:107380009B18F1000020009A04436A4003920F2CDE
:1073900000D9ADE0534EA4003459A74640460443FB
:1073A0006ED1002102250824884689460295D2E73D
:1073B000009C0298C34649460194022864D00328E1
:1073C00000D1ABE2012800D038E2019A002402404B
:1073D0000025A14660E0434623434AD040460028AA
:1073E00000D1C0E100F022FE031E272B00DDB3E137
:1073F00028210D1A211C083B4246E9409A400D1CE9
:107400001543221C9A40A8469146374B00251B1A6B
:107410009A46002402959EE75A4616430320002E02
:10742000B1D1B34600210220ADE75A4632431BD00A
:107430005B46002B00D18AE1584600F0F7FD272873
:1074400000DD7DE12822171A011C321C08395B4639
:10745000FA408B40171C1F43331C8B40BB46191C42
:10746000214B1B1A00208EE70027BB46002101207C
:1074700089E70020012504248046814602956AE7B9
:1074800003250C24029566E7019C0394039D0122C9
:107490002A400024114DA146002000212403260B80
:1074A0000C0D2405114B34432D0523402B435B0069
:1074B0005B08D207191C4846114307B03CBC9046F4
:1074C0009946A246AB46F0BD002280242403914693
:1074D000024DE1E700240025A146DDE7FF0700009B
:1074E00001FCFFFFF89B00000DFCFFFFFFFF0F807A
:1074F0005546ED1A0495D84500D953E100D14EE127
:10750000049C0025013C4E4604944746A946584633
:1075100003020C0E1C430902250C23041B0C0091D2
:10752000381C291C0193FEF7D7FD0199834641437E
:10753000381C8A46291CFEF713FE330C0904194334
:107540008A450CD95B460919013B8C4200D947E1B9
:107550008A4500D844E10222524293440919534615
:10756000CB1A181C291C9846FEF7B6FD071C01987B
:10757000291C784382464046FEF7F2FD36040B0490
:10758000360C33439A4509D91B197A1E9C4200D9FF
:1075900024E19A4500D821E1023F1B195E463204DE
:1075A0001743380CBB46009E009F51463F0C3204E7
:1075B0005B1A5946BA46120C0F043F0C90465146CE
:1075C0007A434F434146414356467043CF19160C08
:1075D000BE19B14202D980277F02C019310C1204B2
:1075E0003604120C4018B618834200D2C4E000D111
:1075F000BEE0191A4846861BB145BF417F42CF1BEA
:10760000A74200D113E1291C381CFEF765FD019942
:1076100002904143381C8946291CFEF7A1FD330C1A
:107620000904194389450CD9029B0919013B8C4275
:1076300000D9FFE0894500D8FCE0029F0919023F0C
:1076400002974F46CF1B381C291C0597FEF744FDB7
:10765000071C0198291C784381460598FEF780FD98
:1076600036040904360C0E43B14509D936197B1E80
:10767000B44200D9E0E0B14500D8DDE0023F361960
:10768000029D4946761A290439430B0457460A0CD1
:107690001B0C40464546584355437B437A43EB1801
:1076A000070CDB199D4202D980256D0252191D0C71
:1076B00000041B04000C52191B18964235D300D14C
:1076C000FCE001231943049E994FF519002D00DCBD
:1076D000A1E0480709D00F230B40042B05D00B1D58
:1076E0008B42894149428B44191C5A46D20107D525
:1076F000904B5C46049E80271C40FF00A346F51972
:107700008D4B9D427ADD039C0122224000248B4D4B
:10771000A146C1E680242403474627424CD13C437E
:107720002403240B009A854DB6E63619481EB44250
:107730005ED9011C9642C4D1009E9E42C1D1C2E7CF
:10774000031C283B311C99408B46002188E6301CE5
:1077500000F06CFC203072E6283B211C994000228E
:107760008846914651E6201C00F060FC20303BE644
:107770000021B14500D33DE7009F5A46B944B945C1
:10778000BF417F423F19FB18013A9C421ED29842EA
:1077900000D97EE000D1B5E0191A93462AE7894561
:1077A00000D8ADE64846464642467708D307460825
:1077B000C0071E438146AAE65846204212D1044320
:1077C00024032A1C240B89465C4D65E6A342E3D1C1
:1077D000009F4F45DBD9211A93460BE7171CDDE6C6
:1077E0009B46BCE63C432403240B009A534D53E6CE
:1077F000B24259D800D18AE0011C62E75F46C9084D
:107800007B07039E0B437C026D0501229946240BE6
:107810006D0D324040E64A4B049FDB1B382B10DDD8
:10782000039C0122224000240025A14634E60121C8
:10783000494248E7029304E71F1C21E7019C039497
:1078400041E71F2B40DC3F48049F0C1C3A18584668
:107850009140DC40904020430A1C511E8A41011C8B
:1078600011435A46DA40131C480709D00F220A4038
:10787000042A05D00A1D8A42894149425B18111C1D
:107880001A0234D5039C0122224000240125A1467E
:1078900002E6009F02214942B9448B44B94589411F
:1078A00049420919CB18A4E6009D881E6900A94227
:1078B000AD416D422C19361900913AE7002B00D0EA
:1078C00033E70024009437E71F4A049C5D46121BEF
:1078D000D5402A1C202B1FD01C4E5F46A3199F4069
:1078E0003B1C19434B1E994111430023BCE75A0727
:1078F000C9080A43039F91465B0201221C0B3A40D0
:107900000025C9E54E45C4D89346002172E6009F84
:107910009F42C9D3011C0FE70023E2E78024240320
:107920005F463C432403240B019A8946034DB3E58B
:10793000FF030000FFFFFFFEFE070000FF0700003F
:1079400002FCFFFF1E040000E2FBFFFF3E040000FC
:10795000F0B5564644465F464D46F0B41F1C0B0337
:107960001B0B9A464B0087B0041C80465B0DC80F6A
:10797000161C02938146002B68D0694B02999942EC
:1079800032D08022534652031A43D200630F1A4367
:107990009246644AE000891880460291002400253E
:1079A0003B031B0B9B467800FB0F321C400D0393DF
:1079B00000D175E05A4B984269D080225946520353
:1079C0000A43730FD2001A43564B9346C018F20075
:1079D000002303994E4671401C430F2C00D9A9E0A7
:1079E000514EA4003459A74653461C4300D087E0AB
:1079F0000025AA46A84608240225D1E74946022DBB
:107A00006CD0032D00D117E2012D00D058E10D40BC
:107A1000EDB20024A9460023A04600200021250342
:107A20000A0D1C052D0B1205404B2A43134023431E
:107A30005B004C465B08E207191C4046114307B047
:107A40003CBC90469946A246AB46F0BD5346234304
:107A500050D05346002B00D184E1504600F0E6FAA6
:107A6000031E272B00DD76E128210D1A211C083B7F
:107A70005246E9409A400D1C1543221C9A40AA46E2
:107A800090462B4B00241B1A0293002588E75B4687
:107A90001E430323002E9CD1B3460022022398E705
:107AA0005B46334321D05846002800D14EE100F018
:107AB000BDFA272800DD42E128210F1A021C311CE3
:107AC000083A5B46F94093400F1C1F43331C934018
:107AD000BB461A1C164B181A00237AE701230B40E9
